:020000040000fa
:10000000f8ff022069d90300bbb70300bbb70300a8
:10001000bbb70300bbb70300bbb703000000000081
:10002000000000000000000000000000bbb703005b
:10003000bbb7030000000000bbb70300bbb7030061
:10004000bbb70300bbb70300bbb70300bbb70300dc
:10005000bbb70300bbb70300bbb70300bbb70300cc
:10006000bbb70300bbb70300bbb70300bbb70300bc
:10007000bbb70300bbb70300bbb70300bbb70300ac
:10008000bbb70300bbb70300bbb70300bbb703009c
:10009000bbb70300bbb70300bbb70300bbb703008c
:1000a000bbb70300bbb70300bbb70300bbb703007c
:1000b000bbb70300bbb70300bbb70300bbb703006c
:1000c000bbb70300bbb70300bbb70300bbb703005c
:1000d000bbb70300bbb70300bbb70300bbb703004c
:1000e000bbb70300bbb70300000000000000000026
:1000f00000000000bbb70300bbb70300bbb70300a1
:10010000bbb70300bbb70300bbb70300bbb703001b
:10011000bbb70300bbb70300bbb70300bbb703000b
:10012000bbb70300bbb70300bbb70300bbb70300fb
:10013000bbb70300bbb70300bbb70300bbb70300eb
:10014000bbb70300bbb70300bbb70300bbb70300db
:10015000bbb70300bbb703000000000000000000b5
:10016000000000000000000000000000000000008f
:10017000000000000000000000000000000000007f
:10018000bbb70300bbb70300bbb70300bbb703009b
:1001900000000000bbb70300bbb70300bbb7030000
:1001a000bbb70300bbb70300bbb70300bbb703007b
:1001b000bbb70300bbb70300bbb70300bbb703006b
:1001c000bbb70300bbb70300bbb70300bbb703005b
:1001d000bbb70300000000000000000000000000aa
:1001e000000000000000000000000000bbb703009a
:1001f000bbb70300bbb70300bbb7030000000000a0
:10020000000000000000000000000000bbb7030079
:10021000bbb70300bbb70300bbb70300bbb703000a
:10022000bbb70300bbb70300bbb70300bbb70300fa
:10023000bbb70300bbb70300bbb70300bbb70300ea
:1002400000000000bbb70300bbb70300bbb703004f
:10025000bbb70300bbb70300bbb70300bbb70300ca
:020000040000fa
:10026000f8b500bff8bc08bc9e46704755e00300d7
:10027000f8b500bff8bc08bc9e46704731e00300eb
:020000040000fa
:0802800090ab03000100000037
:020000040000fa
:10028800ad427b01726182e0bc20fe42ff44ff69ff
:10029800ff88ff64ff41f764ff85ff02e5e0cce2d9
:1002a800b440abc08b4082a07a8172407a807ac019
:1002b800b420e5a0f6a2ff8affb2f77aef7ee77ec8
:1002c800e77fdf5edf7fd77fdf5fd75fd75fd75ef0
:1002d800d75fcf5dd75fcf3fcf3ed75fd75fcf7eaa
:1002e800d77fcf3ed73ecf5fcf5fcf5ed73fd77f99
:1002f800df5fdf7fe77fe79fef9fef9fef9fef9f36
:10030800ef9fefbff7bff7bff7bfefbfef9fef9fbd
:10031800e79fd77fc73fb6ffb6ffb6ffb6ffb6ff6a
:10032800b6ffb6ffb6ffb6ffb6ffb6ffb6ffaeff25
:10033800aeffaeffaedfaedfa6dfa6dfa6dfa6df2d
:10034800a6bf9edfa6dfa6bfbf1fd75fcf1fa6df52
:1003580096bf96bf969f969f969f969f8e9f8e7fdd
:100368008e7f8e7f867f867f867f867f867f867f4d
:10037800867f7e5f7e5f7e5f7e5f7e7f7e5f7e5f45
:100388007e5f7e5f7e5f765f763f763f765f765fe5
:10039800763f763f763f763f763f763f763f6e3fb5
:1003a8006e3f6e3f6e1f6e1f6e1f661f661f661fb5
:1003b8005e1f5e1f5e1f5e1f5e1f5e1f5dff5dff8f
:1003c8005e1f5dff5dff5dff55ff55ff55ff55ff44
:1003d80055ff4dff4dff4dff4dff4dff4ddf4ddfed
:1003e80045df45df4ddf45df45bf45bf45bf45bf5d
:1003f8003ddf3dbf3dbf3dbf3dbf3dbf3dbf3dbff5
:100408003dbf3dbf3dbf3dbf35bf35bf359f359f64
:10041800359f35bf35bf2dbf2d9f2d9f2d9f2d9ffc
:10042800259f259f259f259f259f25bf259f259f84
:100438001d9f259f2d9f259e1d9e159e1d9e1d7ee1
:10044800257e1d7e257e257e257e255e1d5e1d7ee4
:10045800255e1d5e157e155e155e155e155e0d5ecc
:1004680084006a606a4072809b40dd80ff22ff6bd7
:10047800ff47ff45ff66ff67ff66ff40fec1fe833b
:10048800ed81dce0e580bc209ba1ac22abe0bc2187
:10049800eda0fe61fea1ff28ff73f79be77edf7fdb
:1004a800df5edf5edf7edf5fdf5fdf5fd75fd75e48
:1004b800cf5fd75fd75fcf5fcf5fd73ed73fd77fbd
:1004c800d75fd73fcf5fc73fcf5fd73fd75fdf5fec
:1004d800df5fdf7fe77fe77fef9fef9fef9fef9f74
:1004e800ef9fefbff7bff7bff7bfefbfef9fef9fdc
:1004f800e77fdf7fc73fbf1fb6ffb6ffb6ffb6ff78
:10050800b6ffb6ffb6ffb6ffb6ffb6ffaeffaeff4b
:10051800aeffaeffaedfaedfaedfa6dfa6dfa6df43
:10052800a6bf9edfa6bfaedfbf1fdf5fcf1fa6df60
:1005380096bf96bf969f969f969f8e9f8e9f8e7f03
:100548008e7f8e7f867f867f867f867f867f867f6b
:10055800867f7e5f7e5f7e5f7e5f7e7f7e5f7e5f63
:100568007e5f7e5f7e5f765f763f763f765f765f03
:10057800763f763f763f763f763f763f763f6e3fd3
:100588006e3f6e1f6e1f6e1f6e1f661f661f661ff3
:100598005e1f5e1f5e1f5e1f5e1f5e1f5dff5dffad
:1005a8005dff5dff55ff5dff55ff55ff55ff55ff8b
:1005b8004dff4dff4dff4dff4dff4dff4ddf4ddf13
:1005c80045df45df45df45df45bf45bf45df45bf63
:1005d8003ddf3dbf3dbf3dbf3dbf3dbf3dbf3dbf13
:1005e8003dbf3dbf3dbf35bf35bf35bf35bf35bf4b
:1005f800359f35bf2dbf2dbf2d9f2d9f2d9f2d9f23
:10060800259f25bf259f259f259f259f259f259fa2
:100618001d9f259f2d9f259f1d9f1d9e1d9e1d9ed5
:10062800257e1d7e257e257e257e257e1d5e1d5e02
:100638001d5e155e157e155e155e155e155e155ef2
:100648006ac06a406a4072609b40dd82ff26f76b91
:10065800ff6def2cde69ce2beef0ff46ff03fea305
:10066800ede0f621fee4f5c0d501e600fe81ed805f
:10067800f620fec5ff06ff4aff75ef9cdf7dd75fba
:10068800df5edf7fdf7fdf7fdf5fdf5fdf5fd75e1c
:10069800d75ed75fcf3fcf5fcf5fd77ed75edf7f95
:1006a800cf7ed73ecf5fc75fcf5fcf3fcf5ed75eee
:1006b800df7fdf7fe77fe77fe79fef9fef9fef9f7a
:1006c800ef9fefbff7bff7bff7bff7bfefbfef9fd2
:1006d800e79fdf7fcf5fbf1fb71fb71fb6ffb6ff0c
:1006e800b6ffb6ffb6ffb6ffb6ffb6ffaeffaeff6a
:1006f800aeffaedfaedfaedfaedfa6dfa6dfa6bfa2
:10070800a6bf9edfa6bfaedfbf1fdf7fcf3fa6df3e
:1007180096bf96bf969f969f969f8e9f8e9f8e7f21
:100728008e7f8e7f867f867f867f867f867f867f89
:10073800867f7e5f7e5f7e5f7e5f7e7f7e5f7e5f81
:100748007e5f7e5f765f765f763f763f765f765f29
:10075800763f763f763f763f763f763f763f6e3ff1
:100768006e3f6e1f6e1f6e1f661f661f661f661f19
:100778005e1f5e1f5e1f5e1f5e1f5e1f5dff5dffcb
:100788005dff5dff55ff55ff55ff55ff55ff55ffb1
:100798004dff4dff4dff4dff4dff4dff4dff4ddf11
:1007a80045df45df45df45bf45bf45bf45df3ddf89
:1007b8003ddf3dbf3dbf3dbf3dbf3dbf3dbf3dbf31
:1007c8003dbf3dbf35bf35bf35bf35bf35bf35bf71
:1007d800359f35bf2dbf2d9f2dbf2d9f2d9f2d9f41
:1007e800259f259f259f259f259f259f259f259fe1
:1007f8001d9f259f259f259f1d9f159e159e1d9e0c
:100808001d9e1d7e257e257e257e257e1d5e1d5e08
:10081800157e155e155e155e155e155e155e1d5e10
:100828005a406a4072608b20cd03ee85d687adac06
:10083800b5d2a5b48cf29533d6f5f74bff41fec07f
:10084800fe80ff2cff4afea0f620fea1ff6cff28c9
:10085800ff28f750ff53ffb5f7bae77ed73dd75ebd
:10086800d75edf7fdf7fdf7fdf5fdf5fdf5fdf5f39
:10087800d75ed75ecf5fcefcc6bad77fd75ed73eee
:10088800d77fd75ed73dcefcd75ecf3fcf5fd75f50
:10089800df5fdf7fdf7fe77fe79fef9fef9fef9fc0
:1008a800ef9fefbff7bff7bff7bff7bff7bfefbfc8
:1008b800ef9fe79fd75fbf1fb6ffb6ffb6ffb6ff34
:1008c800b6ffb6ffb71fb6ffb6ffb6ffaeffaeff67
:1008d800aeffaeffaedfaedfaedfa6dfa6dfa6bfa0
:1008e800a6bf9ebfa6bfaedfbf1fdf7fd73faedf6d
:1008f80096bf96bf969f969f969f8e9f8e9f8e7f40
:100908008e7f8e7f867f867f867f867f867f867fa7
:10091800867f7e5f7e5f7e5f7e5f7e5f7e5f7e5fbf
:100928007e5f7e5f765f765f763f763f765f765f47
:10093800763f763f763f763f763f763f763f6e3f0f
:100948006e3f6e1f6e1f6e1f661f661f661f661f37
:100958005e1f5e1f5e1f5e1f5e1f5e1f5dff5dffe9
:100968005e1f5dff5dff55ff55ff55ff55ff4dffae
:100978004dff4dff4dff4dff4dff4dff4dff4ddf2f
:1009880045df45df45df45df45bf45bf45df3ddf87
:100998003ddf3dbf3dbf3dbf3dbf3dbf3dbf3dbf4f
:1009a8003dbf3dbf35bf35bf35bf35bf359f359fcf
:1009b800359f35bf2dbf2dbf359f359f2d9f2d9f4f
:1009c8002d9f25bf25bf259f259f259f259f259fb7
:1009d8001d9f259f259f259f1d9f157e157e1d9f69
:1009e8001d9e1d7e1d7e257e257e1d7e1d5e1d5e37
:1009f800157e155e155e155e155e155e155e1d5e2f
:100a080062c06aa07b20a441cd65d605b5a794ec49
:100a1800848f95529d74b616e6f5ff0fff48fee0e9
:100a2800fee1ff6dff4df6e5fec0fec3ff90f795b2
:100a3800ffb5f79cef7eef7ddf5ed75fdf3fd75ec8
:100a4800d75edf5fdf7fdf5fdf5fdf5fdf5fdf5f97
:100a5800df5fd75fd77fc634a58dcf3dd77fd77fe0
:100a6800d75edf5fd695ce0dd71bcf5fcf5fd75f41
:100a7800d75fdf5fdf7fe77fe77fe79fef9fef9f2e
:100a8800ef9fefbff7bff7bff7dff7bff7bff7bfbe
:100a9800ef9fe79fd75fc71fb6ffb6ffb6ffb6ff4a
:100aa800b6ffb6ffb71fb6ffb6ffb6ffaeffaeff85
:100ab800aeffaeffaedfaedfa6dfa6dfa6dfa6dfa6
:100ac800a6df9ebfa6bfa6bfbf1fdf5fd75fb6df8b
:100ad80096bf96bf969f969f969f8e9f8e9f8e7f5e
:100ae8008e7f8e7f867f867f867f867f867f867fc6
:100af800867f7e5f7e5f7e5f7e5f7e5f7e5f7e5fde
:100b08007e5f7e5f765f765f763f763f765f763f85
:100b1800763f763f763f763f763f763f763f6e3f2d
:100b28006e1f6e1f6e1f6e1f661f661f661f661f75
:100b38005e1f5e1f5e1f5e1f5e1f5dff5dff5dff28
:100b48005dff5dff5dff55ff55ff55ff55ff4dffed
:100b58004dff4dff4dff4dff4dff4dff4dff4dff2d
:100b680045df45df45df45df45df45bf45df3dbfa5
:100b78003ddf3ddf3dbf3dbf3dbf3dbf3dbf3dbf4d
:100b88003dbf3dbf35bf35be35bf35bf359f359fee
:100b9800359f359f35bf2dbf359f2d9f2d9f2d9f8d
:100ba8002dbf25bf25bf259f259f259f1d9f1d9fc5
:100bb8001d9f259f259e259f1d9f157e157e1d9e89
:100bc800159e1d7e1d7e1d7e1d5e1d5e1d5e1d5ead
:100bd800157e155e155e155e155e0d5e155e155e5d
:100be8006c217465a5abc66fce73ded6df17be76f3
:100bf800b6569df59533adf5d6b5e6adde8bde88f8
:100c0800f705ff6bf70bf70eff29fea0ff4fff7be1
:100c1800ffbeefbfdf5fd75ed73ed75ed75fd73f58
:100c2800d75edf5fdf5fdf5fdf7fdf7fdf5fdf5f95
:100c3800df5ed77fd77fb5cf9cc4cef9d71dcf1c39
:100c4800d77fcf1ec5ccbda3d71bc75fc71ecf5e3e
:100c5800d75ed75fdf7fe77fe77fe79fef9fef9f55
:100c6800ef9fefbff7bff7bff7dff7bff7bff7bfdc
:100c7800ef9fe79fdf5fc73fb6ffb6ffb6ffb6ff40
:100c8800b6ffb6ffb6ffb6ffb6ffaeffaeffaeffcc
:100c9800aeffaeffaedfaedfa6dfa6dfa6dfa6dfc4
:100ca800a6bf9ebfa6bfa6bfb71fd75fd75fb6ffb9
:100cb80096bf969f969f969f969f8e9f8e9f8e7f9c
:100cc8008e7f8e7f867f867f867f867f867f867fe4
:100cd8007e5f7e5f7e5f7e5f7e5f7e5f7e5f7e5f24
:100ce8007e5f7e5f765f765f765f763f765f763f84
:100cf800763f763f763f763f763f763f6e3f6e3f54
:100d08006e1f6e1f6e1f6e1f6e1f661f661f661f8b
:100d18005e1f5e1f5e1f5e1f5e1f5dff5dff5dff46
:100d28005dff5dff5dff55ff55ff55ff55ff4dff0b
:100d38004dff4dff4dff4dff4dff4dff4dff4dff4b
:100d480045df45df45df45df45df45df45df3dbfa3
:100d58003ddf3ddf3dbf3dbf3dbf3dbf3dbf3dbf6b
:100d68003dbf3dbf35bf35be35bf35bf359f359f0c
:100d7800359f359f35bf35bf359f2d9f2d9f2dbf83
:100d88002dbf2d9f25bf259f1d9f1d9f1d9f1d9e0c
:100d9800259f259f259f259f1d9f1d9e159e159e5e
:100da800157e1d7e1d7e1d7e1d5e1d7e1d7e257e83
:100db800157e155e155e155e155e155e0d5e155e7b
:100dc80074848d29c6d5f7bdf7bcef7af79aef9ae8
:100dd800e7dcc6da955384f0b5b2e6cece4bbe0c4e
:100de800eeaeff0ceecdeeedff70fec9e6cde75b93
:100df800f7dfefbed73dd75fdf5fd73ecf3dcf3db3
:100e0800cf3ed75fdf5fdf5fdf7fd75ed75edf5f15
:100e1800d75ed75ecf7fc612a4e3ce51c613be7786
:100e2800dfbfcebbbda8bda5d6fdcf3fcf3ecf7e91
:100e3800d75edf5fdf7fe77fe77fe77fef9fef9f8b
:100e4800ef9fefbff7bff7bff7dff7dff7bff7bfda
:100e5800efbfe79fdf7fcf3fb71fb6ffb6ffb6fff5
:100e6800b6ffb6ffb6ffb6ffb6ffaeffaeffaeffea
:100e7800aeffaeffaedfaedfaedfa6dfa6dfa6dfda
:100e8800a6df9ebfa6bfa6bfb6ffcf5fcf3faedf30
:100e980096bf969f969f969f969f8e9f8e9f8e7fba
:100ea8008e7f8e7f867f867f867f867f867f867f02
:100eb8007e5f7e5f7e5f7e5f7e5f7e5f7e5f7e5f42
:100ec8007e5f7e5f765f765f765f763f765f763fa2
:100ed800763f6e3f763f763f763f6e3f6e3f6e3f82
:100ee8006e1f6e1f6e1f6e1f6e1f661f661f661faa
:100ef8005e1f5e1f5e1f5e1f5e1f5dff5dff5dff65
:100f08005dff5dff5dff55ff55ff55ff55ff55ff21
:100f18004dff4dff4dff4dff4dff4ddf4dff4dff89
:100f28004ddf4ddf45df45df45df45df45df3ddf91
:100f38003ddf3ddf3dbf3dbf3dbf3dbf3dbf3dbf89
:100f48003dbf3dbf3dbf35bf35bf35bf35bf359f01
:100f5800359f359f359f359f359f359f2d9f2d9ff9
:100f68002d9f25bf259f259f1d9f1d9f1d9f1d9e52
:100f7800259f259f259f259e1d9e1d9f159e159e7d
:100f8800159e1d7e1d7e1d7e1d7e1d7e1d5e1d5ea9
:100f9800157e0d5e155e155e155e155e0d5e0d5ea9
:100fa80074a48d6bb671ceb4d716ced5b612a5f291
:100fb800add4a59584d1644c9d71ffbae6d3bded3f
:100fc800be0dce2fc650de2eff0eff6fdeab848d1a
:100fd800b658e77edf5ecf1dd6fedf5fd75fbede89
:100fe800c6fdd73edf5fdf5fd75ecf3dd73edf7ff1
:100ff800df5fdf7ed79fce96a523bde8bdccd6faae
:10100800d75ece55c5a4bd86ce77df19f79ddf5ec6
:10101800d75fdf7fdf7fe77fe77fe77fef9fefbf68
:10102800ef9fefbff7bff7dfffdff7dff7dff7bfb0
:10103800efbfe79fdf7fcf5fbf1fb6ffb6ffb6ffeb
:10104800b6ffb6ffb6ffb6ffaeffaeffaeffaeff10
:10105800aeffaedfaedfaedfaedfa6dfa6dfa6df18
:10106800a6df9ebfa6bfa6bfaedfc73ec71fa6bfef
:1010780096bf969f969f969f969f8e9f8e9f8e7fd8
:101088008e7f8e7f867f867f867f867f867f865f40
:101098007e5f7e5f7e5f7e5f7e5f7e5f7e5f7e5f60
:1010a8007e5f7e5f765f765f765f763f763f763fe0
:1010b8006e3f6e3f6e3f6e3f6e3f6e3f6e3f6e3fc0
:1010c8006e1f6e1f6e1f6e1f6e1f661f661f661fc8
:1010d8005e1f5e1f5e1f5e1f5e1f5dff5dff5dff83
:1010e8005dff5dff5dff55ff55ff55ff55ff4dff48
:1010f8004dff4dff4dff4dff4ddf4ddf4dff4ddfe8
:101108004dff4ddf45df45df45df45df45df3ddf8f
:101118003ddf3ddf3dbf3dbf3dbf3dbf3dbf3dbfa7
:101128003dbf3dbf3dbf35be35bf35bf35bf359f20
:10113800359f359f2d9f359f359f359f2d9f2d9f1f
:101148002dbf25bf259f259f1d9f1d9f1d9f1d9e50
:10115800259f259f259f259e1d9e1d9f159e157ebb
:10116800157e1d7e1d7e1d7e1d7e1d7e1d5e1d5ee7
:10117800157e0d5e0d5e0d5e155e155e155e0d5ecf
:10118800748395aaa5ed84e6b5eaf70fef0cc6714e
:1011980085337c8f742e642d9d4fef38f79adef4db
:1011a800ded0d650ce71e6cef708ffabeeaa6be4e0
:1011b8007cced73cd6fcb679a617c6fcbe9a8d75f0
:1011c8008596c6dddf5ed73fcf3eb5d2c632df3d5e
:1011d800df1ccf5ddfdfc696b547c584ce2bdf3b6e
:1011e800d673cde5cde0bd22e607ff51ef9ad77f54
:1011f800d75ed77fe77ee79fe79fe75fe77fef9fb1
:10120800efbff7bff7bff7bff7dff7dff7dff7dfae
:10121800efbfef7fdf7fcf5fbf1fb6ffb6ffb6ff21
:10122800b6ffb6ffb6ffb6ffaeffaedfaeffaeff4e
:10123800aeffaeffaeffaedfaedfaedfa6dfa6bf0e
:10124800a6bf9ebf9ebf9ebfa6bfb6ffaeffa6bfee
:1012580096bf969f969f969f8e7f8e9f8e9f8e9ffe
:101268008e7f8e7f867f865f867f867f867f7e5f86
:101278007e5f7e5f7e5f7e5f7e5f7e5f7e5f7e5f7e
:101288007e5f7e5f7e5f765f765f765f765f763fb6
:10129800763f763f763f6e3f6e3f6e3f6e1f6e1f06
:1012a8006e3f6e1f6e1f6e1f6e1f661f661f661fc6
:1012b8005e1f5e1f5e1f5e1f5e1f5e1f5dff5dff80
:1012c8005dff5dff5dff55ff55ff55ff55ff4dff66
:1012d8004dff4dff4dff4dff4dff4dff4dff4ddfc6
:1012e8004ddf4ddf4ddf45df45df45bf45df45dfde
:1012f8003ddf3ddf3dbf3dbf3dbf3ddf3dbf3dbfa6
:101308003dbf3dbf3dbf3dbf35bf35bf35bf35bf15
:1013180035bf35bf359f359f359f359f359f359fe5
:101328002d9e2dbf25bf259f259f259f1d9f1dbe37
:101338001d9f1d9f259e1d9e1d9e1d9e159e159ed3
:101348001d9e157e157e1d7e1d5e1d5e1d7e1d5e0d
:101358001d5e157e0d7e1d5e155e1d5e0d3e0d5ecd
:101368006c428d69a5cd74648481e665ff44eeaa5c
:10137800adb184f0746f746b9d0ace0de6b0ff9327
:10138800ffaff72fe711f7d0ffa7ff64eec47c6526
:101398006c2ab62ebe0b9ce69505a5678ca67c44e8
:1013a80074478d10b698d73ed6bbbdaaad23d6f5e7
:1013b800ce54be50defbce54b561d5e0de43de8ba5
:1013c800cda4d5a0d5c0cd61f6c0f74ce77ecf5de2
:1013d800df3fe79fe79ee75fe77fe79fe79fefbf76
:1013e800ef9fefbff7bff7bff7dff7dff7dff7dff5
:1013f800f7bfef9fdf7fd75fbf1fb6ffb6ffb6ff10
:10140800b6ffb6ffb6ffb6ffaeffaedfaeffaeff6c
:10141800aeffaeffaedfaedfaedfaedfa6dfa6bf4c
:10142800a6bf9ebf9ebf9ebfa6bfa6dfa6df9e9f8c
:10143800969f969f969f969f969f8e9f8e9f8e7f34
:101448008e7f8e7f867f865f867f867f867f7e5fa4
:101458007e5f7e5f7e5f7e5f7e5f7e5f7e5f7e5f9c
:101468007e5f7e5f7e5f765f765f765f765f763fd4
:10147800763f763f6e3f6e3f6e3f6e3f6e1f6e1f2c
:101488006e1f6e1f6e1f6e1f661f661f661f661f0c
:101498005e1f5e1f5e1f5e1f5e1f5e1f5dff5dff9e
:1014a8005dff5dff5dff55ff55ff55ff55ff4dff84
:1014b8004dff4dff4dff4dff4dff4dff4dff4ddfe4
:1014c8004ddf4ddf4ddf45df45df45bf45df45dffc
:1014d8003ddf3ddf3ddf3dbf3dbf3dbf3dbf3dbfc4
:1014e8003dbf3dbf3dbf35bf35bf35bf35bf35bf3c
:1014f80035bf35bf359f359f359f359f359f359f04
:101508002d9e2d9f259f259f259f259f259f1d9ead
:101518001d9f1d9f1d9f1d9e1d9e159e159e1d9ef8
:10152800159f157e157e1d7e1d7e1d5e1d7e1d5e12
:10153800155e157e155e1d5e155e155e155e155ee3
:101548005c018d669d6963416ac0c4e0ff00e66284
:1015580094cb7cce6c8f74ada56cd5e8eea6ffeb72
:10156800ffc7ff09ff6cffcdff27ff02ee417c0399
:1015780063e884859cc49483844384647c247c24a9
:10158800744484878cea9d6eadafa567b522bd868d
:10159800cdaaad43bda8c5a8bd60de01e621ddc06a
:1015a800cd60e5c0d5a0d5a0fec0f754df9edf5fb3
:1015b800e75def7ee79fdf9fe77ee77fe77fe77ed8
:1015c800ef9fefbff7bfffbfffdff7dfffdff7dffb
:1015d800f7bfef9fdf7fd77fc71fb6ffb6ffb6ff06
:1015e800b6ffb6ffb6ffaeffaeffaedfaeffaeff93
:1015f800aeffaeffaedfaedfaedfaedfa6dfa6bf6b
:10160800a6df9ebf9edf9ebf9ebf9ebf9ebf969fca
:10161800969f969f969f969f969f8e9f8e7f8e7f72
:101628008e7f8e7f867f867f867f867f867f7e5fa2
:101638007e5f7e5f7e5f7e5f7e5f7e5f7e5f7e5fba
:101648007e5f7e5f7e5f765f765f765f765f763ff2
:10165800763f763f6e3f6e3f6e3f6e1f6e1f6e1f6a
:101668006e1f6e1f6e1f6e1f661f661f661f5e1f32
:101678005e1f5e1f5e1f5e1f5e1f5e1f5dff5dffbc
:101688005dff5dff5dff55ff55ff55ff4dff4dffaa
:101698004dff4dff4dff4dff4dff4dff4dff4ddf02
:1016a8004ddf4ddf4ddf45df45df45bf45df45df1a
:1016b8003ddf3ddf3ddf3ddf3dbf3dbf3dbf3dbfc2
:1016c8003dbf3dbf35bf35bf35bf35bf35bf35bf62
:1016d800359f359f359f359f359f359f359f359f62
:1016e800359f2d9f2d9f259f259f259f259f259fb2
:1016f8001d9f259f1d9f1d9e1d9e159e159e159e17
:10170800159e157e157e1d7e1d7e1d7e1d7e155e19
:10171800155e157e155e1d3e0d5e0d5e0d5e155e39
:1017280064008d467c254a205240a400fea0cda12d
:1017380063a87cae6c8f6c6d94cccd86ff25ffe9d9
:10174800e6a6de48f729ff44ff65ff64eea08ca4f7
:101758006c4884c97c2474437ca47c8474247447b6
:10176800954ead919d8fa5b2b636ad90b520bd40d2
:10177800bd43bd42b520b520bd40cdc1d581cd20ea
:10178800c540cd60d560ee20f6c4f79bdf7fef7bc8
:10179800ffadff72e77fdfbfe77fe75fef9fe79f60
:1017a800ef9fefbff7bfffbfffdfffdfffdff7df11
:1017b800f7bfe79fdf7fd77fc73fb6ffaeffb6ff14
:1017c800b6ffb6ffb6ffaeffaeffaeffaeffaeff91
:1017d800aeffaedfaedfaedfaedfaedfa6dfa6bfa9
:1017e800a6df9ebf9ebf9ebf9ebf9ebf96bf96bff1
:1017f800969f969f969f969f969f8e9f8e7f8e7f91
:101808008e7f867f867f867f867f867f7e5f7e5ff0
:101818007e5f7e5f7e5f7e5f7e5f7e5f7e5f7e5fd8
:101828007e5f7e5f765f765f765f763f765f763f38
:10183800763f763f6e3f6e3f6e3f6e1f6e1f6e1f88
:101848006e3f6e3f6e1f6e1f6e1f661f661f5e1f08
:101858005e1f5e1f5e1f5e1f5e1f5e1f5dff5dffda
:101868005dff5dff55ff55ff55ff55ff55ff4dffc8
:101878004dff4dff4dff4dff4dff4dff4dff4ddf20
:101888004ddf4ddf4ddf45df4ddf45bf45df45df30
:101898003ddf3ddf3ddf3ddf3dbf3dbf3dbf3dbfe0
:1018a8003dbf3dbf35bf35bf35bf35bf35bf35bf80
:1018b800359f359f359f359f359f359f359f359f80
:1018c800359f359f2d9f259f259f25bf259f259fa8
:1018d8001d9f259f1d9f1d9e1d9e159e159e157e55
:1018e800157e157e157e1d7e1d7e1d7e1d7e155e58
:1018f800157e155e155e1d5e0d5e0d5e0d3e155e58
:101908007c819d896b2351a051e19380f620b5001d
:101918005321644b6cb084d194aebd68ff45ffa7da
:10192800bd8494e7e6c6ff60ff81ff40ffa2c6457d
:1019380074a9adafc5cfde6df72ef74fdeafa56b3f
:10194800ae14cefcbedacf1fe79fdedbbd63b52049
:10195800b520bd41b500acc0acc0ac80a400ac4063
:10196800ac60b460dd40ee20e6cdef9fef7bff2b4f
:10197800ff20ff29e75cdf9fe79de77ee77fdf9f8a
:10198800ef9fefbff7bff7dff7dff7dff7dff7bf4f
:10199800f7bfe79fe77fdf7fcf3fb71faeffb6fff9
:1019a800b6ffb6ffb6ffaeffaeffaeffaeffaedfcf
:1019b800aeffaedfaedfaedfaedfaedfa6dfa6bfc7
:1019c800a6bf9ebf9ebf9ebf9ebf9ebf96bf96bf2f
:1019d800969f969f969f969f969f8e9f8e9f8e7f8f
:1019e8008e7f867f867f867f867f867f7e5f7e5f0f
:1019f8007e5f7e5f7e5f7e5f7e5f7e5f7e5f7e5ff7
:101a08007e5f7e5f765f765f765f763f763f763f76
:101a1800763f763f6e3f6e3f6e3f6e1f6e1f6e1fa6
:101a28006e3f6e3f6e1f6e1f6e1f661f661f5e1f26
:101a38005e1f5e1f5e1f5e1f5e1f5dff5dff5dff19
:101a48005dff5dff55ff55ff55ff55ff55ff4dffe6
:101a58004dff4dff4dff4dff4dff4dff4dff4ddf3e
:101a68004ddf4ddf4ddf45df4ddf45bf45bf45df6e
:101a780045df45df3ddf3ddf3dbf3dbf3dbf3dbfee
:101a88003dbf3dbf3dbf35bf35bf35bf35bf35bf96
:101a980035bf35bf35bf35bf35bf359f359f359ffe
:101aa800359f2d9f259f259f259f259f259f259ff6
:101ab8001d9f1d9f1d9e1d9e1d9e1d9f159e157e73
:101ac800157e157e157e1d7e1d5e1d5e1d7e155eb6
:101ad8001d5e155e0d5e1d5f0d5e155e0d3d155e8e
:101ae80085049d6a526151a049a08321dd809ce153
:101af8004b2153866c8f85128ccfb589f726ffc88a
:101b0800ce067487ef07ff43f703f6a1de45ad481d
:101b18006c28954da5d0a5cfceb1d6b2ce95add275
:101b28007c8fb67bd75fc71cbebace50bd80bd20a8
:101b3800b500b4e0b500a46093a08b607ac07b00c8
:101b480093619ba0bc80d580f713ef39ff0bfea0f3
:101b5800f6c3ef34df9edf7fe77fdf9fdf7fe77f1e
:101b6800ef9fef9ff7bff7bff7bff7bff7bff7bf0d
:101b7800f7bfe79fe79fe77fd75fbf1faeffb6ffbf
:101b8800b6ffb6ffaeffaeffaedfaeffaeffaedf15
:101b9800aedfaedfaedfaedfaedfa6dfa6dfa6bf0d
:101ba800a6bf9ebf9ebf9ebf9ebf9ebf969f969f8d
:101bb800969f969f969f969f969f8e7f8e9f8e7fcd
:101bc8008e7f867f867f867f867f867f7e5f7e5f2d
:101bd8007e5f7e5f7e5f7e5f7e5f7e5f7e5f7e5f15
:101be8007e5f7e5f765f765f765f763f763f763f95
:101bf800763f763f6e3f6e3f6e3f6e1f6e1f6e1fc5
:101c08006e3f6e1f6e1f6e1f6e1f661f661f661f5c
:101c18005e1f5e1f5e1f5e1f5e1f5dff5dff5dff37
:101c28005dff5dff55ff55ff55ff55ff4dff4dff0c
:101c38004dff4dff4dff4dff4dff4dff4dff4ddf5c
:101c48004ddf4ddf4ddf45df4ddf45bf45bf45df8c
:101c580045bf45df3ddf3ddf3dbf3ddf3dbf3dbf0c
:101c68003dbf3dbf3dbf3dbf35bf35bf35bf35bfac
:101c780035bf35bf35bf35bf35bf359f359f359f1c
:101c8800359f2d9f259f25bf259f259f259f1d9ffc
:101c9800259f259f259e1d9e1d9e1d9f159e157e79
:101ca800159e157e157e1d7e1d5e1d5e1d5e155ed4
:101cb8001d5e155e0d5e1d5f0d5e155e155e155e83
:101cc800a5e7b5eb84678c668c87ad68de66a5658d
:101cd8004ba44b24642d8d32a570ce2deeeaef6c0b
:101ce800ce2a7ce9decfbdeba54a9cc75bc44b6618
:101cf8004b6553a653a7436664285bc9748e853227
:101d0800744d5c2bb659d7bfb659ad02b500bd614d
:101d1800c541ac619be08b807b0072a06a406a2061
:101d28007ac082e09340b460ee89ee84f660fe6388
:101d3800ff35ef5ef79cef9de79fdf7edf7ee77e56
:101d4800e79fef9ff7bff7bff7bff7bff7bff7bf33
:101d5800f7bfe79fe77fef9fdf7fbf3faeffb6ff8d
:101d6800b6ffb6ffaeffaeffaeffaeffaeffaedf13
:101d7800aedfaedfaedfaedfaedfa6dfa6dfa6bf2b
:101d8800a6bfa6df9ebf9ebf9ebf9ebf969f969f83
:101d9800969f969f969f969f969f969f8e9f8e7fc3
:101da8008e7f867f867f867f867f865f7e5f7e5f6b
:101db8007e5f7e5f7e5f7e5f7e5f7e5f7e5f7e5f33
:101dc8007e5f7e5f765f765f765f763f763f763fb3
:101dd800763f763f763f763f6e3f6e3f6e3f6e3f73
:101de8006e3f6e1f6e1f6e1f6e1f661f661f661f7b
:101df8005e1f5e1f5e1f5e1f5e1f5dff5dff5dff56
:101e080055ff55ff55ff55ff55ff55ff4dff4dff3a
:101e18004dff4dff4ddf4dff4dff4dff4dff4ddf9a
:101e28004ddf4ddf4ddf45df4ddf45bf45bf45dfaa
:101e380045bf45df3ddf3dbf3dbf3ddf3ddf3dbf2a
:101e48003dbf3dbf3dbf3dbf3dbf35bf35bf35bfc2
:101e580035bf35bf35bf359f359f359f359f359f7a
:101e68002d9f2dbf2dbf25bf25bf259f259f25bf92
:101e7800259f259f259f259e1d9e1d9f1d9e1d7e7e
:101e8800159f157e1d7e257e255e255e1d7e155eb1
:101e9800155e157e155e1d5e0d5e0d5e155e155e8a
:101ea800ceacef0def8fe76ee72ed6afdec9adc42f
:101eb80053c45344746cbe30f70eff2eff51f757ce
:101ec8009db16c2b9d6e744d4ae743064b253b2311
:101ed8003b4243434b4453c6642853865ba8746c07
:101ee800959474f0746da657b677a4c0acc1aca035
:101ef800b4a0a4007aa072c062805a0062206a006e
:101f0800622072607a808b01bc20e580ee62eea9c7
:101f1800eed0deadff0dff7ae79fe77ee77fdf7f3c
:101f2800e79fef9ff7bff7bff7bff7bff7bff7bf51
:101f3800f7bfef9fe79eef9fe77fc73fb6ffb6ff6c
:101f4800b6ffb6ffaeffaeffaeffaeffaeffaedf31
:101f5800aedfaedfaedfaedfaedfa6dfa6dfa6bf49
:101f68009ebfa6df9ebf9ebf9ebf96bf96bf969f91
:101f7800969f969f969f969f969f969f8e9f8e7fe1
:101f88008e7f867f865f867f867f865f7e5f7e5fa9
:101f98007e5f7e5f7e5f7e5f7e5f7e5f7e5f7e5f51
:101fa8007e5f7e5f765f765f765f763f763f763fd1
:101fb800763f763f763f763f763f6e3f6e3f6e3f89
:101fc8006e1f6e1f6e1f6e1f6e1f661f661f661fb9
:101fd8005e1f5e1f5e1f5e1f5e1f5dff5dff5dff74
:101fe80055ff55ff55ff55ff55ff55ff4dff4dff59
:101ff8004dff4dff4ddf4dff4dff4dff4dff4ddfb9
:102008004ddf4ddf4ddf45df4ddf45bf45bf45dfc8
:1020180045df45bf3ddf3dbf3dbf3ddf3ddf3dbf48
:102028003dbf3dbf3dbf3dbf3dbf3dbf35bf35bfd8
:1020380035bf35bf35bf359f359f359f359f359f98
:102048002d9f2d9f2d9f2d9f2d9f259f259f259f40
:10205800259f259f259f259f1d9e1d9f1d9f1d9f79
:10206800159e1d7e1d7e257e257e255e1d5e155ec8
:10207800157e157e155e1d3e055e0d5e0d5e153dd9
:10208800d688e709dec8d649ae27a608d667ce2483
:102098005c0453a2a54bff68ff22ff2df79affbff0
:1020a800ce9863ce63cb63ca4b09ad88d66a7c668b
:1020b8004b8453e54bc55c0764064b634b856c0743
:1020c800be58d75db6baa6389df39d26ac80a4212c
:1020d8009c008b2072805a205a00624062606260c5
:1020e8006a607281726072807a81a3e0dda1d56234
:1020f800cd40c520eeacffbbe79fdf9fe77fe77fc2
:10210800e79fefbff7bff79fefbfefbfefbff7bf87
:10211800efbfefbfef9fef9fdf7fc73fb6ffb6ff71
:10212800aeffaeffaeffaeffaeffaedfaedfaedf9f
:10213800aedfaedfaedfa6dfa6dfa6dfa6dfa6df57
:10214800a6dfa6df9ebf9ebf9ebf96bf96bf969f87
:10215800969f969f969f969f969f969f8e9f8e7fff
:102168008e7f8e7f867f867f867f867f7e5f7e7f5f
:102178007e7f7e5f7e5f7e5f7e5f7e5f7e5f7e5f4f
:10218800765f765f765f763f763f763f765f765fff
:10219800763f763f763f6e3f6e3f6e1f6e1f6e3ff7
:1021a8006e1f6e1f6e1f6e1f6e1f661f661f661fd7
:1021b8005e1f5e1f5e1f5e1f5dff5dff5dff5dffb3
:1021c8005dff5dff5dff55ff55ff55ff4dff4dff5f
:1021d8004dff4dff4dff4dff4dff4dff4dff4ddfb7
:1021e8004ddf4ddf4ddf4ddf4ddf45bf45bf45bfff
:1021f8004dbf45df45df3ddf3dbf3dbf3dbf3dbf77
:102208003ddf3dbf3dbf3dbf3dbf35bf35bf35bfde
:102218003dbf359f3dbf359f359f359f359f359fc6
:1022280035bf2dbf2d9f259f259f259f259f259f26
:102238001d9f259f259f259f259f1d7f159e159fc7
:102248000d9e157e1d7e257e255e255e1d5e155e16
:10225800155e155e155e155e155e155e155e1d5ed6
:10226800ce41e6e2d685bde5be03d624f6a4de213e
:102278005ba35343c5c8ff81f760f74ef779ffddcd
:10228800ffddadb07c4b9d50ad6bff6bffcdae2b32
:1022980074c774e7644664275bc5432153e484e943
:1022a800cef7e79fe7bfe7bfdf3ecdf1b500a4c09b
:1022b800a4608b80624059e151e05a2062406a80f4
:1022c8006a8072807280728072408280a3e0c5004a
:1022d800cd00dda1eeadef58e77ee77fdf7edfbf03
:1022e800e79fef9ff79ff79fef9fef9fef9ff79f66
:1022f800ef9fef9fe79fe77edf7fc73fb6ffaeff09
:10230800aeffaeffaeffaeffaeffaedfaedfaedfbd
:10231800aedfaedfaedfa6dfa6dfa6dfa6dfa6df75
:10232800a6bfa6df9ebf9ebf9ebf96bf96bf969fc5
:10233800969f969f969f969f969f969f8e9f8e7f1d
:10234800867f867f867f867f867f867f7e5f7e5fad
:102358007e7f7e5f7e5f7e5f7e5f7e5f7e5f7e5f6d
:10236800765f765f765f763f763f763f765f765f1d
:10237800763f763f6e3f763f6e3f6e1f6e1f6e1f35
:102388006e1f6e1f6e1f6e1f6e1f661f661f661ff5
:102398005e1f5e1f5e1f5e1f5dff5dff5dff5dffd1
:1023a8005dff5dff55ff55ff55ff55ff4dff4dff85
:1023b8004dff4dff4dff4dff4dff4dff4ddf4ddff5
:1023c8004ddf4ddf4ddf4ddf4ddf4ddf45bf45bff5
:1023d80045bf45bf45bf3ddf3ddf3dbf3dbf3dbfbd
:1023e8003dbf3dbf3dbf3dbf3dbf35bf35bf35bf1d
:1023f8003dbf359f359f359f359f359f359f359f0d
:10240800359f2d9e2d9f2d9f259f25bf259f259f5d
:102418001d9e1d9e259e259e1d9e1d9e159e159edc
:10242800157e157e1d7e257e255e1d7e1d5e155e34
:10243800155e155e155e155e155e155e155e153e1c
:10244800bdc1de82d625d623ee63e663e662ddc033
:102458008c626bc6c5a7fee1ff20fecafeaff7136c
:10246800ff74ee8eb528ce4dd62adeacceaea5ce04
:10247800850c7cea6c896c6853a45be57d0a84e969
:10248800add3d71de77ddf7dd77bce4eb520acc061
:1024980093c073205a4051c051e052215a006aa09b
:1024a80072c06a80728072a0728072609361d585f2
:1024b800f689f689f6acf734f79cef9ee77fe79e3e
:1024c800e79fef9fef9fef9fef9fef9fef9fef9f9c
:1024d800ef9fef9fe79fe79fd77fc73fb6ffb6ff06
:1024e800aeffaeffaeffaeffaeffaedfaedfaedfdc
:1024f800aedfaedfaedfa6dfa6dfa6dfa6bfa6bfd4
:10250800a6dfa6bf9ebf9ebf9ebf96bf96bf969fe3
:10251800969f969f969f969f969f969f8e9f8e7f3b
:10252800867f867f867f867f867f867f7e5f7e7fab
:102538007e7f7e5f7e5f7e5f7e5f7e5f7e5f7e5f8b
:102548007e5f7e5f765f765f763f763f765f765f0b
:10255800763f763f6e3f763f6e3f6e3f6e1f6e1f33
:102568006e1f6e3f6e1f6e1f6e1f6e1f661f661feb
:102578005e1f5e1f5e1f5e1f5dff5dff5dff5dffef
:1025880055ff55ff55ff55ff55ff55ff4dff4dffb3
:102598004dff4ddf4dff4dff4dff4dff4ddf4ddf33
:1025a8004ddf4ddf4ddf4ddf4ddf4ddf45df45dfd3
:1025b80045df45df45bf45bf45bf45bf3dbf3dbfc3
:1025c8003dbf3dbf3dbf3dbf3dbf3dbf3dbf3dbf23
:1025d8003dbf3dbf3dbf3dbf35bf359f359f359f93
:1025e800359f2d9f2d9f2dbf2d9f2d9f2d9f259f63
:1025f800259e2d9f2d9f259e259f259e259e259ea8
:10260800257f1d7e1d7e1d7e1d7e1d7e1d5e155e29
:10261800155e155e1d5e1d5e1d5e1d5e155e153e1a
:10262800c587d643ce03d600f640e600de00e5e0d7
:10263800d5e3a52fc568fea0f6a0dd82d521c52269
:10264800c521bcc1abe0b4c1a5879d8c956b7d2a23
:1026580074c874c86466642564057cea9dcf84cb1d
:102668008d6ec6dbdf7fd77dc75ace74bd2193e060
:102678006a2051a051e05a40520049e05a406ae1ac
:1026880072c06aa072a07ac07ac07ac09360cd2561
:10269800de2cf6efff57ff9ef7dfe7bfe79fe77fe8
:1026a800ef9fef9fef9fef9fef9fef9fef9fef9fb2
:1026b800efbfef9fe79fe79fd75fbf1fb6ffb71f2b
:1026c800aeffaeffaeffaeffaeffaedfaedfaedffa
:1026d800aedfaedfaedfa6dfa6dfa6dfa6dfa6bfd2
:1026e800a6bfa6dfa6df9ebf9ebf96bf969f969ffa
:1026f800969f969f969f969f969f8e9f8e9f8e9f42
:102708008e7f8e7f867f867f867f867f867f7e7f91
:102718007e7f7e7f7e5f7e5f7e5f7e5f7e5f7e5f89
:102728007e5f7e5f7e5f765f765f763f765f765f01
:10273800763f763f763f763f763f6e3f6e3f6e3f01
:102748006e1f6e3f6e3f6e1f6e1f6e1f661f661fe9
:102758005e1f5e1f5e1f5e1f5e1f5dff5dff5dffec
:1027680055ff55ff55ff55ff55ff55ff4dff4dffd1
:102778004dff4dff4dff4dff4dff4dff4dff4dfff1
:102788004ddf4ddf4ddf4ddf4ddf4ddf45df45dff1
:102798003ddf45df45df45bf45bf45bf45bf3dbfc1
:1027a8003dbf3dbf3dbf3dbf3dbf3dbf3dbf3dbf41
:1027b8003dbf3dbf3dbf3dbf3dbf35bf35bf359f69
:1027c80035bf359f2d9f2d9f2d9f2d9f2d9f259f79
:1027d8002d9f2d9f2d9f259f259f259f259f259fb9
:1027e800257e257e257e257e1d7e1d7e1d7e157ef1
:1027f800157e1d7e1d7e1d5e1d5e1d5e155e155eb1
:10280800f6e8ff61ff62ff42ff41fee0ee80e5c0af
:10281800cd409d0bace8cd00a4007ae07aa07ac048
:102828007aa072a0726083a1956a9dab954974e7fe
:1028380074c5646564246c866c6784e9adce9d6e4e
:10284800c6d9dfbfdf7fd77da6319d6ac5c49c404e
:102858007ac19bc06a40520051e0522062806ac02f
:1028680072e072e072c07ac07ac0728082e0a440de
:10287800de20fec3fee6ff2dffb7ef9def9fef9f23
:10288800ef9fef9fef9fefbfef9fef9fef9fef9fb0
:10289800ef9fe79fe79fdf7fcf3fbeffaeffaeff13
:1028a800aeffaeffaeffaeffaeffaedfaedfaedf18
:1028b800aedfaedfaedfa6dfa6dfa6dfa6dfa6dfd0
:1028c800a6dfa6dfa6dfa6bf9ebf9ebf96bf96bfa8
:1028d800969f969f969f969f969f8e9f8e9f8e9f60
:1028e8008e7f8e7f867f867f867f867f867f7e7fb0
:1028f8007e7f7e7f7e7f7e5f7e5f7e5f7e5f7e5f88
:102908007e5f7e5f7e5f7e5f765f765f765f763f17
:10291800763f763f763f763f763f763f6e3f6e3f17
:102928006e3f6e3f6e3f6e3f6e1f6e1f6e1f661fbf
:102938005e1f5e1f5e1f5e1f5e1f5dff5dff5dff0a
:102948005dff5dff55ff55ff55ff55ff4dff4dffdf
:102958004dff4dff4dff4dff4dff4dff4dff4dff0f
:102968004ddf4ddf4ddf4ddf4ddf4ddf4ddf4ddfff
:1029780045df45df45df45df45df45bf45bf3ddf77
:102988003ddf3ddf3dbf3ddf3ddf3dbf3dbf3dbfdf
:102998003dbf3dbf3dbf3dbf3dbf35bf35bf35bf67
:1029a80035bf359f2d9f2dbf2d9f25bf25bf259f47
:1029b800259f25bf25bf259e259f259f259f259fb0
:1029c8001d9e1d9e257e257f257e1d7e1d7e157ed6
:1029d800157e1d5e1d5e1d5e1d5e1d5e1d5e1d5eff
:1029e800b56ac602eea0ff23ff65ff84ff22f660ea
:1029f800bce07c44844672a059c059e06a407260c9
:102a080072616aa062a07c23956a8d898d2a850ae5
:102a18007ce97cc98509958b850984c8b5efceb555
:102a2800efbfe79fe77fe79fd73bae1094c093e0e7
:102a3800a420f6e0832052205a0062405a606ac0ff
:102a480072c072e072c07ae082e07a6182c1ac4002
:102a5800cd80ddc0ee40ff0affb7efdde7beef7eb9
:102a6800ef9fef9fef9fef9fef9fef9fef9fef9fee
:102a7800ef9fe79fdf7fdf7fcf3fb6ffaeffaeff61
:102a8800aeffaeffaeffaeffaeffaedfaedfaedf36
:102a9800aedfaedfaedfa6dfa6dfa6dfa6dfa6dfee
:102aa800a6dfa6dfa6dfa6df9ebf9ebf96bf96bfa6
:102ab800969f969f969f969f969f8e9f8e9f8e7f9e
:102ac8008e7f8e7f867f867f867f867f867f7e7fce
:102ad8007e7f7e7f7e7f7e7f7e5f7e5f7e5f7e5f86
:102ae8007e5f7e5f7e5f7e5f765f765f763f763f56
:102af800763f763f763f763f6e3f6e3f6e3f6e3f46
:102b08006e3f6e3f6e3f6e3f6e1f6e1f661f661fe5
:102b18005e1f5e1f5e1f5e1f5e1f5e1f5dff5dff07
:102b28005dff5dff5dff55ff55ff55ff4dff4dfff5
:102b38004dff4dff4dff4dff4dff4dff4dff4dff2d
:102b48004ddf4ddf4ddf4ddf4ddf4ddf4ddf4ddf1d
:102b580045df45df45df45df45df45bf3ddf3ddf7d
:102b68003ddf3ddf3dbf3ddf3ddf3dbf3dbf3dbffd
:102b78003dbf3dbf3dbf3dbf3dbf35bf35bf359fa5
:102b8800359f359f35bf2dbf2dbf25bf25bf259f3d
:102b98002d9f2d9f2d9f259f259f259f1d7f1d7e46
:102ba8001d9e1d9e259f257f257e257e1d7e1d7ec3
:102bb800155e1d5e1d5e1d5e1d5e1d5e1d5e1d5e3d
:102bc800640864249ce0cdc0f6c0ff20ff20fec14d
:102bd800cda38cc78ca962e251c059c062406a413a
:102be8006a60624062a07c44852a7d487d078d2802
:102bf800a5ed956aa5ab9dab74869509def5ef9eac
:102c0800f79fe77fe79fe79fefbfe7bebe2ebd2098
:102c1800c521cda07ac08380730062606a606a8132
:102c28006aa072c07ac07ac082c07a608ae0ac407a
:102c3800cd82e6a9f7b7ffdfffbff7bff7bfef5faa
:102c4800ef9fef9fef9fefbfef9fef9fef9fefbfcc
:102c5800ef9fe77fdf7fdf7fcf3fb6ffaeffaeff9f
:102c6800aeffaeffaeffaeffaedfaedfaedfaedf74
:102c7800aedfaedfaedfa6dfa6dfa6dfa6dfa6df0c
:102c8800a6dfa6dfa6dfa6df9ebf9ebf96bf96bfc4
:102c9800969f969f969f969f969f8e9f8e9f8e7fbc
:102ca8008e7f8e7f867f867f867f867f867f7e7fec
:102cb8007e7f7e7f7e7f7e7f7e5f7e5f7e5f7e5fa4
:102cc8007e5f7e5f7e5f7e5f765f765f763f763f74
:102cd800763f763f763f6e3f6e3f6e3f6e3f6e3f6c
:102ce8006e3f6e3f6e3f6e3f6e1f6e1f661f661f04
:102cf8005e1f5e1f5e1f5e1f5e1f5e1f5dff5dff26
:102d08005dff5dff5dff55ff55ff55ff4dff4dff13
:102d18004dff4dff4dff4dff4dff4dff4ddf4dff6b
:102d28004ddf4ddf4ddf4ddf4ddf4ddf4ddf4ddf3b
:102d380045df45df45df45df45bf45bf3ddf3ddfbb
:102d48003ddf3dbf3dbf3dbf3dbf3dbf3dbf3dbf7b
:102d58003dbf3dbf3dbf3dbf3dbf359f35bf35bfc3
:102d6800359f359f35bf2dbf2d9f259f259f259fbb
:102d78002d9f2d9f2d9f2d7f2d9f2d9f257e257e5d
:102d8800259e257e257f257f257e257e257e1d7e09
:102d98001d5e1d5e1d7e1d5e1d5e1d5e1d5e1d5e33
:102da8005be67c66b521c580de41ee40e661fee665
:102db800eeabd64eb5b0842d62a351c052005a2056
:102dc80062205a4073618c87850a7ce884e89d8b71
:102dd800be4eb5edb60da58c84e9b5edf797f7dfd6
:102de800f7bfe7becf5dc71bcf1bcf5cd6f2ff2175
:102df800f7009c207ae0b5008be062606a606a4068
:102e08006aa06a807aa07a807a608ae0a3e0bce04f
:102e1800e6ebef57f79cf79bffbdf79eef9eefbfe2
:102e2800ef9fef9fe79fefbff7bff79fef9fefbfc2
:102e3800ef9fdf7fdf7fd77fc73fb6ffaeffaeffd5
:102e4800aeffaeffaeffaeffaedfaedfaedfaedf92
:102e5800aedfaedfaedfa6dfa6dfa6dfa6dfa6df2a
:102e6800a6dfa6dfa6dfa6df9ebf9ebf969f96bf02
:102e7800969f969f969f969f969f8e9f8e9f8e9fba
:102e88008e9f8e7f8e7f867f867f867f867f7e7fe2
:102e98007e7f7e7f7e7f7e7f7e5f7e5f7e5f7e5fc2
:102ea8007e5f7e5f7e5f7e5f765f765f763f763f92
:102eb800763f763f6e3f6e3f6e3f6e3f6e3f6e3f92
:102ec8006e3f6e3f6e3f6e3f6e1f6e1f661f661f22
:102ed8005e1f5e1f5e1f5e1f5e1f5e1f5dff5dff44
:102ee8005dff5dff55ff55ff55ff55ff4dff4dff3a
:102ef8004dff4dff4dff4dff4dff4ddf4ddf4ddfca
:102f08004ddf4ddf4ddf4ddf4ddf4ddf4ddf4ddf59
:102f18004dbf4ddf45df45df45df3ddf3dbf3ddfd1
:102f28003ddf3dbf3dbf3dbf3ddf3dbf3dbf3dbf79
:102f38003dbf3dbf3dbf3dbf3dbf3dbf35bf35bfb9
:102f4800359f359f359f2d9f2d9f259f25bf25bfd9
:102f58002dbf2d9f2d9e2d9f2d9f2d9f259e1d9e04
:102f68002d7f2d7f257f257f257e257e257e257e2d
:102f78001d5e1d7e1d7e1d7e1d5e1d5e1d5e1d5e11
:102f880064087c689ce5ad26b567c5a6de43f6c532
:102f9800ee85c567a58e8d7094ee836672c1730247
:102fa80073237ba38c6884eb850b956b956c958b51
:102fb800c66fc64fadae9dad9d8cb5efce92d6d443
:102fc800ced4b613956f850d958d956d84e1ad4082
:102fd800dde08c808400ace083405a0062416a00e6
:102fe80072606a4072806a406a408ac0ac00b4600d
:102ff800dd61e602f622f682fec4ee67e690e73a65
:10300800e79ee77eef9fef9eefbeefbfef9ff7bf14
:10301800e7bfdf7fd77fd75fcf5fbf3faeffaeff92
:10302800aeffaeffaeffaeffaedfaedfaedfaedfb0
:10303800aedfaedfaedfa6dfa6dfa6dfa6dfa6df48
:10304800a6dfa6dfa6dfa6df9ebf9ebf96bf96bf00
:10305800969f969f969f969f969f969f8e9f8e9fd0
:103068008e9f8e7f867f867f867f867f7e7f7e7f10
:103078007e7f7e7f7e7f7e5f7e5f7e5f7e5f7e5f00
:103088007e5f7e5f765f765f765f765f765f763fa0
:10309800763f763f763f6e3f6e3f6e3f6e3f6e3fa8
:1030a8006e3f6e3f6e1f6e1f6e1f6e1f661f5e1f88
:1030b800661f5e1f5e1f5e1f5dff5e1f5dff5dff7b
:1030c8005dff55ff55ff55ff55ff4dff4dff4dff68
:1030d8004dff4dff4dff4dff4dff4dff4ddf4ddfc8
:1030e8004ddf4ddf4ddf4ddf4ddf4ddf4ddf4ddf78
:1030f8004ddf4ddf45bf45bf3ddf3ddf3ddf3ddff8
:103108003dbf3dbf3dbf3ddf3dbf3dbf3dbf3dbfb7
:103118003dbf3dbf3dbf3dbf3dbf3dbf35bf359ff7
:10312800359f359f359f359f2d9f2d9f2d9f2dbff7
:1031380025bf2d9f2d9f2d9f2d9f259f1d9e1d9e39
:103148001d7e1d7e259f257f257e257e257e1d7e55
:103158001d5e1d5e1d5e1d5e1d5e1d5e1d5e1d5e8f
:103168005c066c258ca79ce8a507a527b567bd4814
:10317800b567b569a54ea5b09d4ea56fad8da54d9a
:10318800b56db5cdb5eeb62fb62eadcd84c77ce7ff
:10319800c66fc690be2ea56cb5cec68fceb1deb1b9
:1031a800d6f1c6519550a5f1be75ced5b64d95034d
:1031b8008cc17c20630073608b81a42062606200f4
:1031c8006a206a206a4072408280ab60dd01e56057
:1031d800f600fea0fea0fec1ff2def56ef59f77ec8
:1031e800ef9fe77fef9fefbfefbfefbff7bff79fff
:1031f800efbfdf7fd75fd75fcf5fbf1fb6ffaeffe1
:10320800aeffaeffaeffaeffaedfaedfaedfaedfce
:10321800aedfaedfaedfa6dfa6dfa6dfa6dfa6df66
:10322800a6dfa6dfa6dfa6df9ebf9ebf96bf969f3e
:10323800969f969f969f969f969f969f8e9f8e9fee
:103248008e9f8e7f867f867f867f867f7e7f7e7f2e
:103258007e7f7e7f7e7f7e7f7e5f7e5f7e5f7e5ffe
:103268007e5f7e5f7e5f765f765f765f763f763fd6
:10327800763f763f763f6e3f6e3f6e3f6e3f6e3fc6
:10328800763f6e3f6e3f6e3f6e1f6e1f661f5e1f5e
:10329800661f661f5e1f5e1f5dff5e1f5dff5dff91
:1032a8005dff5dff55ff55ff55ff55ff4dff4dff76
:1032b8004dff4dff4dff4dff4dff4dff4ddf4ddfe6
:1032c8004ddf4ddf4ddf4ddf4ddf4ddf4ddf4ddf96
:1032d8004ddf4ddf45df45df3ddf3ddf3ddf3ddfd6
:1032e8003dbf3dbf3ddf3ddf3ddf3dbf3dbf3dbf96
:1032f8003dbf3dbf3dbf3dbf3dbf3dbf35bf359f16
:1033080035bf359f359f359f2d9f2d9f2d9f2dbff5
:1033180025bf259f2d9f2d9f2d9f2d9f259e1d7e6f
:103328001d9e1d9e257e257e257e257e257e257e4d
:103338001d7e1d7e1d5e1d5e1d5e1d5e1d5e1d5e6d
:10334800748a7c8a9d4cbe0ebdeead8bb5ccc65042
:10335800d671e6f2ef15ef54be71a5d0df73f7759d
:10336800ef32ef73f795f7d4d6d08d2864406c828e
:10337800ced0ffb7ffd7efb4ef74ffb6ffd7ffb7d4
:10338800ffd6ef96be96c6d8e77eefbeef7adeaee2
:10339800cecd9584638052c09420e5e09b806a205e
:1033a80082608ae09300a360aba0b3c0e580fea171
:1033b800ff44ff22ff00fee0ff50ffddffdeefdfee
:1033c800ef5def7fe79fefbfef9fef9ff7bfefbf87
:1033d800efbfdf7fd77fd75fd75fc73fb6ffaeffaf
:1033e800aeffaeffaeffaedfaedfaedfaedfaedf0d
:1033f800aedfaedfa6dfa6dfa6dfa6dfa6dfa6df8d
:10340800a6dfaedfaedfa6df9ebf9ebf96bf96bf2c
:10341800969f969f969f969f969f969f8e9f8e9f0c
:103428008e9f8e7f867f867f867f867f7e7f7e7f4c
:103438007e7f7e7f7e7f7e7f7e7f7e5f7e5f7e5ffc
:103448007e5f7e5f7e5f765f765f765f763f763ff4
:10345800763f763f763f6e3f6e3f6e3f6e3f6e3fe4
:10346800763f6e3f6e3f6e3f6e1f6e1f661f663f54
:10347800661f661f5e1f5e1f5dff5dff5dff5dffd0
:103488005dff5dff5e1f55ff55ff55ff4dff4dff6b
:103498004dff4dff4dff4dff4dff4dff4ddf4ddf04
:1034a8004ddf4ddf4ddf4ddf4ddf4ddf4ddf4ddfb4
:1034b8004ddf4ddf4dbf45df45df3ddf3ddf3ddf04
:1034c8003ddf3dbf3ddf3ddf3dbf3ddf3dbf3dbf94
:1034d80035bf3dbf3dbf3dbf3dbf35bf35bf359f44
:1034e800359f359f35bf2d9f2d9f2d9f2d9f2d9f3c
:1034f80025bf259f2d9f2d9f2d9f2d9f259f257f84
:103508001d9e1d9e1d7e257e257e257e257e257e73
:103518001d7e1d7e1d5e1d5e1d5e1d5e1d5e1d5e8b
:103528009d6e9d6fb611e754ffb8f794ef72e7727e
:10353800ffb7fff8ffd7f777d73595aed693feeeee
:10354800d649c5aad62cdeafc66f74a464617cc305
:10355800a58ba5ccbe4dff90ff90ff91ff90ff8eed
:10356800ff8effb1d6d1952fa615e7ffdf1bd66cce
:10357800ef30b62685008480bd20e5a0b440abe0de
:10358800c460bc40b3e0d4a0dd20bc80cd20fec127
:10359800ff89f725fec0ff41ff23ff24ff92f79b19
:1035a800def5ef7fe79fe79fef9fef9ef79fefbe68
:1035b800ef9fd77fd75fd75fdf5fcf3fb71faeffe4
:1035c800aeffaeffaedfaedfaedfaedfaedfaedf4b
:1035d800a6dfa6dfa6dfa6dfa6dfa6dfa6dfa6dfbb
:1035e800a6dfaedfaedfa6df9ebf9ebf96bf96bf4b
:1035f800969f969f969f969f969f8e9f8e9f8e9f33
:103608008e9f8e7f867f867f867f867f7e7f7e7f6a
:103618007e7f7e7f7e7f7e7f7e5f7e5f7e5f7e5f3a
:103628007e5f7e5f7e5f7e5f765f763f763f763f2a
:10363800763f763f6e3f6e3f6e3f6e3f6e3f6e3f0a
:103648006e3f6e3f6e3f6e3f6e1f6e1f663f663f5a
:10365800661f661f5e1f5e1f5e1f5dff5dff5dffcd
:103668005dff5dff55ff55ff55ff4dff4dff4dffba
:103678004dff4dff4dff4dff4dff4ddf4ddf4ddf42
:103688004ddf4ddf4ddf4ddf4ddf4ddf4ddf4ddfd2
:103698004ddf4ddf4dbf45df45df3ddf3ddf3ddf22
:1036a8003ddf3dbf3dbf3dbf3dbf3dbf3dbf3dbf12
:1036b80035bf35bf3dbf3dbf3dbf35bf35bf359f6a
:1036c800359f359f359f2d9f2d9f2dbf2d9f2d9f5a
:1036d800259f259f2d9f2d9f2d9f2d9f2d9f2d9f92
:1036e8001d9e1d9e1d7e257e257e257e257e1d7e9a
:1036f8001d5e1d5e1d5e1d5e1d5e1d5e1d5e1d5eea
:103708009d4f9d2fa550d6b2e733d68ece2eb5cc81
:10371800ad6cad88d644eea6ad8c744eb56aff216b
:10372800fe20edc0e5a0ddc1eeeca5ab6c6384e73f
:1037380085288509ce48ff2aff6cff89ff68ff8925
:10374800ffa8ff8ee6f2be32952fc6daefdec62d51
:10375800deabe748d6c2d680ff00ff61de60ddc180
:10376800ff01ee40d4e1e541fe40e5c0dd41f62031
:10377800ff44fec3ede0ff01ff62ff22ff2be66b73
:10378800def4ef7ee79fe79eef9fef7fef9fefbeb0
:10379800e79fd75fcf5fd75fdf5fcf3fb71faeff32
:1037a800aedfaedfaedfaedfaedfaedfaedfa6dfb1
:1037b800a6dfa6dfa6dfa6dfa6dfa6dfa6dfa6dfd9
:1037c800a6bfaedfaedfa6dfa6bf9ebf96bf96bf81
:1037d80096bf96bf969f969f8e9f8e9f8e9f8e9f19
:1037e8008e7f8e7f867f867f867f867f7e7f7e7fa9
:1037f8007e7f7e7f7e7f7e5f7e5f7e5f7e5f7e5f79
:103808007e5f7e5f7e5f7e5f765f765f763f763f28
:10381800763f6e3f6e3f6e3f6e3f6e3f6e3f6e3f30
:103828006e3f6e3f6e3f6e3f6e1f6e1f663f663f78
:10383800661f661f5e1f5e1f5e1f5dff5dff5dffeb
:103848005dff5dff55ff55ff55ff4dff4dff4dffd8
:103858004dff4dff4dff4dff4ddf4ddf4ddf4ddf80
:103868004ddf4ddf4ddf4ddf4ddf4ddf4ddf4ddff0
:103878004ddf4ddf4dbf45bf45df3ddf3ddf3ddf60
:103888003dbf3dbf3dbf3dbf3dbf3dbf3dbf3dbf50
:1038980035bf35bf3dbf3dbf3dbf35bf35bf359f88
:1038a80035bf35bf359f2d9f2d9f2dbf2dbf259f20
:1038b800259f259f259f259f259f259f259f259fe0
:1038c8001d7e1d7e257e257e257e257e1d7e1d5e18
:1038d8001d5e1d5e1d5e1d5e1d5e1d5e1d5e1d5e08
:1038e800ad8fa5709d2fceb3df34adaca54bbe0f09
:1038f8008ca88c60e5e0fec0dea7742d9cebf6e298
:10390800fec1ff21ff86ff45ff64dec994e77ce521
:103918009568c669f704ff49ff93ffd3ffb0ff8d91
:10392800ff69ffafce94df59ceb7adf3efbdf79a7d
:10393800e6eeef29e6a5de60f721ff61ef20ef2034
:10394800ff81ff61f680fe60fec0fec1f660fe608a
:10395800ff44fee1f6a2fee2f720ff23f681e644eb
:10396800e75bef7fe79ee7bfef9fe77fef9fef9f64
:10397800e79fd75fcf5fd75fd75fc73fb6ffaeff81
:10398800aedfaedfaedfaedfaedfa6ffa6ffa6df9f
:10399800a6dfa6dfa6dfa6dfa6dfa6dfa6dfa6dff7
:1039a800a6dfaedfaedfaedfa6df9ebf96bf96bf57
:1039b80096bf96bf969f8e9f8e9f8e9f8e9f8e9f3f
:1039c8008e9f8e7f867f867f867f867f7e7f7e7fa7
:1039d8007e7f7e7f7e7f7e5f7e5f7e5f7e7f7e5f77
:1039e8007e5f7e5f7e5f7e5f7e5f765f763f763f3f
:1039f800763f6e3f6e3f6e3f6e3f6e3f6e3f6e3f4f
:103a08006e3f6e3f6e3f6e1f6e1f6e1f661f663fd6
:103a1800661f661f5e1f5dff5dff5dff5dff5dff4b
:103a28005dff5dff55ff55ff55ff55ff4dff4dffee
:103a38004dff4dff4dff4dff4ddf4ddf4ddf4ddf9e
:103a48004ddf4ddf4ddf4ddf4ddf4ddf4ddf4ddf0e
:103a58004ddf4ddf4dbf4dbf45df3ddf3ddf3ddf76
:103a68003dbf3dbf3dbf3dbf3dbf3dbf3dbf35bf76
:103a780035bf3dbf3dbf3dbf3dbf35bf35bf35bf7e
:103a880035bf359f359f2d9f2dbf2dbf2d9f25bf3e
:103a98002d9f2d9f259f259f259f259f259e259ef0
:103aa8001d7e1d7e257e257e257e257e1d7e1d5e36
:103ab8001d7e1d7e1d7e1d5e1d5e1d5e1d5e1d5ec6
:103ac800ce8cbe108cec8d0da5d084eb74679d4c0c
:103ad800954da528de41f6c1ce077c8e7c8fc62782
:103ae800ff61ff49ff89ff68f6e2f721bdc67c85c3
:103af800ce29eec6d5c0f6e7ffafffb9ffbdf75434
:103b0800ff6feef1be34df5df7ffbe77b677efdf0c
:103b1800f798f6e6d600b540e662f700d6c0dea014
:103b2800ef00ff81ff00ff00fee1ff01ff20ff0023
:103b3800ff20f680f6c0f660d540d560dde0f713cb
:103b4800ef9fef7fe79eef9fe77fe79fef9fef9f56
:103b5800e79fd75fd75fd75fcf5fbf3faeffaeffaf
:103b6800aedfaedfaedfaedfaedfa6ffa6dfa6dfdd
:103b7800a6dfa6dfa6dfa6dfa6dfa6dfa6dfa6df15
:103b8800a6dfaedfaeffaedfa6df9ebf9ebf96bf4d
:103b980096bf969f969f8e9f8e9f8e9f8e9f8e9f7d
:103ba8008e9f8e9f867f867f867f867f7e7f7e7fa5
:103bb8007e7f7e7f7e7f7e5f7e5f7e5f7e5f7e5fb5
:103bc8007e5f7e5f7e5f7e5f7e5f765f763f765f3d
:103bd800763f6e3f6e3f6e3f6e3f6e3f6e3f6e3f6d
:103be8006e3f6e3f6e3f6e3f6e1f6e1f661f661ff5
:103bf800661f5e1f5e1f5e1f5dff5dff5dff5dff51
:103c08005dff5dff55ff55ff55ff55ff4dff4dff0c
:103c18004dff4dff4dff4ddf4ddf4ddf4ddf4ddfdc
:103c28004ddf4ddf4ddf4ddf4ddf4ddf4ddf4ddf2c
:103c38004ddf4dbf4dbf4dbf45df3ddf3ddf3dbfd4
:103c48003dbf3dbf3ddf3dbf3dbf3dbf3dbf35bf74
:103c58003dbf3dbf3dbf3dbf3dbf3dbf35bf35bf8c
:103c680035bf359f359f35bf35bf2d9f2d9f259f6c
:103c78002d9f2d9f2d9f259f259e259e259f259e07
:103c88001d9e1d9e259e257e257e257e257e1d7ecc
:103c98001d7e1d7e1d7e1d5e1d5e1d5e1d5e1d5ee4
:103ca800deacded2b5d0744a53c34b825bc47caa67
:103cb8009d2cb5acb5a9cde8c60a9d6f848f9ccb69
:103cc800ff26ffabff8dffafff4aeee5d6888cc617
:103cd800ce07d5c2b540deaeffb5ff93f797d650f5
:103ce800ded3ce75add3e79df7dfe79fa613c6d722
:103cf800f7baff4dee20bce0bd40eee0c600ac4197
:103d0800b4e1d5c0e5e0fee0ff60fee0fee0fee0e5
:103d1800ff40f6e0e5c1d580ac21c4c0ee90f7dfe6
:103d2800e7bfef9fef7fe77fe79fe7bfef9fefbf1b
:103d3800e79fd75fd75fcf5fc73fb73faeffaedf25
:103d4800aedfaedfaedfaedfaedfa6dfa6ffa6dffb
:103d5800a6dfaedfa6dfa6dfa6dfa6dfa6dfa6df2b
:103d6800a6dfaedfaeffaedfa6df9edf9ebf9ebf43
:103d780096bf969f8e9f8e9f8e9f8e9f8e9f8e7fc3
:103d88008e9f8e9f867f867f867f7e7f7e7f7e7fcb
:103d98007e5f7e7f7e7f7e7f7e5f7e5f7e5f7e5fd3
:103da800765f765f7e5f7e5f7e5f7e5f765f765f43
:103db800763f6e3f6e3f6e3f763f6e3f6e3f6e3f83
:103dc8006e3f6e3f6e3f6e3f6e1f6e1f661f661f13
:103dd800661f5e1f5e1f5e1f5dff5dff5dff5dff6f
:103de80055ff55ff55ff55ff55ff4dff4dff4dff43
:103df8004dff4dff4dff4ddf4ddf4ddf4ddf4ddffb
:103e08004ddf4ddf4ddf4ddf4ddf4ddf4ddf4ddf4a
:103e18004ddf4dbf4dbf4dbf45df45bf3dbf3dbf2a
:103e28003dbf3dbf3ddf3dbf3dbf3dbf3dbf35bf92
:103e38003dbf3dbf3dbf3dbf3dbf3dbf35bf35bfaa
:103e480035bf2d9f35bf35bf35bf2d9f259f259f7a
:103e58002d9f2d9f2d9f259f259e259f259f2d9f1b
:103e68001d9e1d9e1d7e257e257e257e257e257f09
:103e78001d5e1d7e1d7e1d5e1d5e1d5e1d5e1d5e22
:103e8800d64cdef2b5f1adb16c063b204ba2a58d48
:103e9800d670ef14ef34ef93ffb4e7109d707c4dac
:103ea800ce0bf78fdf31df12ef51f792f74fbdcd11
:103eb800ada8bca0ad00ce0df7bfffd8de49c5ea5e
:103ec800ce72c633b635e79ff79ef7bfd75cadf025
:103ed800e79bff99ee85c560b500cdc0a4418b0076
:103ee8007ac07ac18b00d5c0ff60ff20fec0e5e034
:103ef800ff40ff60e600c4c0b4c0d650f7bff7ff6c
:103f0800efbfefbdefbeef9dff9fef5fefbeef7f0f
:103f1800e77fcf5fcf5fcf5fc73fb6ffaedfa6ffbc
:103f2800aedfaedfaedfaedfa6dfa6dfa6dfaedf39
:103f3800a6dfa6dfa6dfa6dfa6dfa6dfa6dfa6df51
:103f4800a6dfaedfaeffaedfa6bfa6df9edf96bf61
:103f5800969f8e9f969f969f8e9f8e9f8e9f8e9fd9
:103f68008e9f8e7f8e7f867f867f867f7e7f7e7ff9
:103f78007e5f7e5f7e5f7e5f7e5f7e5f7e5f765f59
:103f88007e5f7e5f7e5f7e5f7e5f7e5f765f763f71
:103f9800763f763f763f6e3f763f6e3f6e3f6e3f91
:103fa8006e3f6e3f6e3f6e3f6e1f661f661f663f19
:103fb8005e1f5e1f5e1f5e1f5e1f5dff5dff5dff74
:103fc80055ff5dff55ff55df55ff55ff4dff4dff71
:103fd8004ddf4ddf4ddf4ddf4ddf4ddf4ddf4ddf79
:103fe8004ddf4ddf4ddf4ddf4ddf4ddf4ddf4dbf89
:103ff8004dbf4ddf45bf45bf45bf45bf3dbf3ddf59
:104008003dbf3dbf3dbf3dbf3dbf3dbf3dbf359ff0
:1040180035bf35bf35bf35bf35bf35bf35bf35bff8
:10402800359f359f2d9f2d9f2d9f2d9f2d9f2dbff8
:104038002d9f2d9f259f1d9f1d9f259f2d9f2d9f48
:104048002d9f259e259e259f257e257e257e257ec6
:104058001d7e1d7e1d7e1d5e1d5e1d5e1d5e1d5e20
:10406800bdeece92be33b633a5af4b824340be2ed3
:10407800fff8fffbfff9f7f7f7d6e791a5af744c08
:104088009d4cdf0ececfc6b1be30c610e6d2ceb143
:10409800b5acb4c0acc0bdcbe7bfdf1abd64c58a40
:1040a800ceb4b5f2b5f4efbef79ff79ef7bcb653a2
:1040b800b611e75def9bbdc3a44093a083206a803f
:1040c800624062207260a3a1ee20ff00ff20c5219c
:1040d800c560ff80ff00b4409bc2d60ee6f5def453
:1040e800f713ff2bff49f74ff77aef9eefdfef9ead
:1040f800e77fd75fd75fd75fc73fb71faedfaeff9a
:10410800aeffaeffaedfaedfa6ffa6dfa6dfaedff7
:10411800a6ffa6dfa6dfa6dfa6dfa6dfa6dfa6df4f
:10412800a6dfaedfaeffaeffaedfa6df9ebf96bf57
:10413800969f969f969f969f8e9f8e9f8e9f8e9fef
:104148008e9f8e7f867f867f867f867f7e7f7e5f3f
:104158007e5f7e5f7e5f7e5f7e5f7e5f7e5f7e5f6f
:10416800765f7e5f7e5f765f765f765f765f763faf
:10417800765f6e3f6e3f6e3f6e3f6e3f6e3f6e3fa7
:104188006e3f6e3f6e3f6e3f6e1f661f661f661f57
:104198005e1f5e1f5e1f5e1f5e1f5dff5dff5dff92
:1041a80055ff5dff55ff55ff55ff55ff4dff4dff6f
:1041b8004ddf4ddf4ddf4ddf4ddf4ddf4ddf4ddf97
:1041c8004ddf4ddf4ddf4ddf4ddf4ddf4ddf4ddf87
:1041d8004dbf45df45df45bf45bf45bf3dbf3ddf5f
:1041e8003dbf3dbf3dbf3dbf3dbf3dbf3dbf359f0f
:1041f800359f35bf35bf35bf35bf35bf35bf35bf37
:1042080035bf359f2d9f2d9f2d9f2d9f2d9f2d9f16
:104218002d9f2d9f259f259f259f259f2d9e2d9f57
:104228002d9f257e259e257e257e257e257e257e25
:10423800157e155e1d5e1d7e1d5e1d5e1d5e1d5e6e
:10424800d6b2cef4be53be53c6947ca943207c2676
:10425800d6d4ceb3d68ee68bf72aef6cadcd6c4ba9
:10426800952ad6aeceb1be75add29d0db52db5b2df
:104278009d089c409c41ad08cf1abe129c60b54970
:10428800ceb4b5d1c676e77fdfbfef7aff2ade6707
:10429800ad69b5c5c62bb5659be08b2072605a0029
:1042a80059e062406a6062609c20cd81f700dde0e1
:1042b80082e1c520fee1c4e082809360b4a0cd62b3
:1042c800ee22fec3ff6effb5ffddf7bdef9ef7bf21
:1042d800e79fd75fd75fd75fc73fb6ffaedfaeffb9
:1042e800aeffaeffaedfaedfa6dfa6dfa6dfaedf36
:1042f800aeffa6ffa6dfa6dfa6dfa6dfa6df9edf4e
:10430800a6bfaedfaeffb6ffb6ffaedfa6bf9ebf4d
:1043180096bf969f8e9f8e9f8e9f8e9f8e9f8e9ffd
:104328008e7f867f867f867f867f867f7e7f7e5f85
:104338007e5f7e5f7e5f7e5f7e5f7e5f7e5f7e5f8d
:10434800765f765f765f765f763f765f763f763f1d
:10435800763f6e3f6e3f6e3f6e3f6e3f6e3f6e3fe5
:104368006e3f6e3f6e3f6e3f6e1f661f661f661f75
:104378005e1f5e1f5e1f5e1f5e1f5dff5dff5dffb0
:1043880055ff5dff5dff55ff55ff55ff4dff4dff85
:104398004ddf4ddf4ddf4ddf4ddf4ddf4ddf4ddfb5
:1043a8004ddf4ddf4ddf4ddf4ddf4ddf4ddf4ddfa5
:1043b80045df45bf45bf45bf45df45df3ddf3ddf45
:1043c8003dbf3dbf3dbf3dbf3dbf3dbf3dbf3dbf05
:1043d80035bf35bf35bf35bf35bf35bf35bf35bf35
:1043e800359f359f2d9f2d9f2d9f2d9f2d9f2d9f55
:1043f8002d9f2d9f2d9f2d9f2d9f2d9f2d9e2d9e57
:104408002d9f259e259e257e257e257e257e257e23
:10441800157e155e1d7e1d7e1d5e1d5e1d5e1d5e6c
:10442800f797def6be33be33b5f27c6743405b8157
:10443800846583c38b40cca0fea0ff64c5e66c08ee
:104448009ce5b565ad489d0e94f094aa94659caa28
:104458008c4783a083608bc0a5069c829400b5ce50
:10446800ceb5be52c6f8a61995b9c678feeaff249d
:10447800e665b501b4c0a48093c082a16200622041
:104488006a406a606281524052408ba0c561b48024
:104498006a8172c0a4009ba0724082c0ac20cca1eb
:1044a800ed80fea5ff52ff77f7bcefdfe79ff79f90
:1044b800e79fd77fd75fdf5fc73fb6ffaedfaeffaf
:1044c800aeffaeffaedfa6dfa6dfa6dfa6dfaedf5c
:1044d800aeffaeffa6ffa6dfa6dfa6dfa6df9edf44
:1044e800a6bfa6dfaeffb6ffb6ffaedfa6bf9ebf74
:1044f80096bf969f8e9f8e9f8e9f8e9f8e9f8e9f1c
:104508008e7f8e7f867f867f867f867f7e7f7e7f7b
:104518007e5f7e5f7e5f7e5f7e5f7e5f7e5f7e5fab
:104528007e5f7e5f765f765f765f763f763f763f2b
:104538006e3f6e3f6e3f6e3f6e3f6e3f6e3f6e3f0b
:104548006e3f763f763f763f6e3f6e1f661f661f53
:10455800661f5e1f5e1f5e1f5dff5dff5dff5dffe7
:1045680055ff5dff5dff55ff55ff55ff4dff4dffa3
:104578004dff4ddf4ddf4ddf4ddf4ddf4ddf4ddfb3
:104588004ddf4ddf4ddf4ddf4ddf4ddf4ddf4ddfc3
:1045980045df45bf45bf45bf45df45df3ddf3dbf83
:1045a8003dbf3dbf3dbf3dbf3dbf3dbf3dbf3dbf23
:1045b80035bf35bf35bf35bf35bf35bf35bf35bf53
:1045c800359f359f359f2d9f2d9f2d9f2d9f2d9f6b
:1045d8002d9f2d9f2d9f2d9f2d9f2d9f2d9f2d9e74
:1045e8002d9f257e259e257e257e257e257e257e62
:1045f8001d7e1d7e1d7e1d7e1d5e1d5e1d5e1d5e5b
:10460800d6d2be32b5f2b5f2a56e6be5432063a3f0
:1046180073e162607aa0d540ff22ff64cde374277e
:10462800ad06b520ace0a4c19442840283e07bc20d
:10463800842873615a016220728072608382be315d
:10464800c693d6d6c6f69d3094abad68ee63ff230d
:10465800ff23e682c541a4409bc07aa15a005a00b4
:10466800624062206260628062606ac06ac0628082
:1046780062806aa07ac07ac072607aa0b400dd0055
:10468800fe41fe80fee2ff07ff2cff94ffbcefdf38
:10469800e79fd77fdf5fdf7fcf5fb6ffaeffaeff5d
:1046a800aeffaeffaedfa6dfa6dfa6dfa6dfaedf7a
:1046b800aeffaeffa6ffa6dfa6dfa6dfa6dfa6df5a
:1046c800a6bfa6dfaedfb6ffb6ffaedfa6bf9ebfb2
:1046d80096bf969f8e9f8e9f8e9f8e9f8e9f8e9f3a
:1046e8008e7f8e7f8e7f867f867f867f7e7f7e7f92
:1046f8007e5f7e5f7e5f7e5f7e5f7e5f7e5f7e5fca
:104708007e5f7e5f765f763f765f763f763f6e3f71
:104718006e3f6e3f6e3f6e3f6e3f6e3f6e3f6e3f29
:104728006e3f763f763f763f6e1f663f661f661f79
:10473800661f5e1f5e1f5e1f5dff5dff5dff5dff05
:104748005dff5dff55ff55ff55ff55ff4dff4dffc1
:104758004dff4dff4ddf4ddf4ddf4ddf4ddf4ddfb1
:104768004ddf4ddf4ddf4ddf4ddf4ddf45df45dff1
:104778004ddf45df45bf45bf45bf45df45bf3dbfb1
:104788003dbf3dbf3dbf3dbf3dbf3dbf3dbf35bf49
:1047980035bf35bf35bf35bf35bf35bf35bf35bf71
:1047a800359f359f359f359f2d9f2d9f2d9f2d9f81
:1047b8002d9f2d9f2d9f2d9f2d9f2d9f2d9f2d9f91
:1047c8002d9f257e257e257e257e257e257e257ea0
:1047d8001d7e1d7e1d7e1d7e1d5e1d5e1d5e1d5e79
:1047e800adb0b5f1b613a5b09d4c95085bc1740486
:1047f800840272c09bc0de00ff22ff63c5c263e271
:10480800b523c560b4e0c542a4a06b2062c06300b4
:1048180074476b63418049a051a051a07342be31d7
:10482800c674df17df18cdebee40f681ee40ee6080
:10483800f6c0fee1d5e0c4c0b4607ac059c05200e9
:104848005a00624083607b2073006ae15a605a8094
:1048580062a16a8082e07ac072608280b3e1d5008a
:10486800ede0fec0ff27ff6fff4afec1f6c7e7591c
:10487800e79edf7fdf7fe77fcf5fb71fb6ffaeff23
:10488800aeffaeffaedfa6dfa6dfa6bfa6dfaedfb8
:10489800aeffaeffaedfa6dfa6dfa6dfa6dfa6df90
:1048a800a6dfaedfaedfb6ffb6ffaedf9ebf96bfb8
:1048b80096bf969f8e9f8e9f8e9f8e9f8e9f8e7f78
:1048c8008e7f8e7f8e7f867f867f7e5f7e7f7e7fd8
:1048d8007e5f7e5f7e5f7e5f7e5f7e5f7e5f7e5fe8
:1048e800765f765f763f765f763f763f6e3f6e3fc8
:1048f800763f763f763f6e3f6e3f6e3f6e3f6e3f30
:104908006e3f763f7e5f763f6e3f661f661f661f6f
:10491800661f5e1f5e1f5e1f5e1f5dff5dff5dff02
:104928005dff5dff55ff55ff55ff55ff4dff4dffdf
:104938004dff4ddf4ddf4ddf4ddf4ddf4ddf4ddfef
:104948004ddf4ddf4dbf4dbf4ddf45df45df45be78
:1049580045df45df45bf45bf45bf45bf45bf3dbff7
:104968003dbf3dbf3ddf3dbf3dbf3dbf35bf35bf4f
:1049780035bf35bf35bf35bf35bf35bf359f359fcf
:10498800359f359f359f359f2d9f2d9f2d9f2d9f9f
:104998002d9f2d9f2d9f2d9f2d9f2d9f2d9f2d9eb0
:1049a8002d9f257e257e257e257e257e257e255ede
:1049b800257e255e1d7e1d5e1d5e1d5e1d5e1d5ec7
:1049c800add0be51b6328d0e84a99d6b7468950b1f
:1049d800bda3c540e5c0f640fec1ff01ad015b8146
:1049e800a4c0cda1aca0a4809c40628052206342a8
:1049f8006c486bc749c03960418041c07ba4c6314f
:104a0800d757d736ced6c587dda0ff04ff28ef07d6
:104a1800f727fee8e641cd20dde0a42061e159e07a
:104a280059e08ba094205a605a8062c162805a6013
:104a380062806aa07b006aa06a407aa0a3c0ac40ea
:104a4800c4c0ee00f600f680fec0fe80f6a5ef7644
:104a5800e79edf7ee77fe79fcf7fb71fb6ffaefffa
:104a6800aeffaeffa6ffa6df9edf9edfa6dfaeff8e
:104a7800b6ffaeffaeffa6dfa6dfa6dfa6dfa6df86
:104a8800a6dfaedfaedfb6ffb6ffaedf9ebf96bfd6
:104a9800969f969f8e9f8e9f8e9f8e9f8e7f8e7fd6
:104aa8008e7f867f867f867f867f867f7e7f7e7fde
:104ab8007e7f7e5f7e5f7e5f7e5f7e5f7e5f765fee
:104ac800765f765f763f763f763f763f6e3f6e3f06
:104ad800763f763f763f763f6e3f6e3f6e3f6e3f46
:104ae8006e1f763f7e5f7e5f6e3f661f661f661f86
:104af800661f5e1f5e1f5e1f5e1f5dff5dff5dff21
:104b080055ff55ff55ff55ff55ff4dff4dff4dff15
:104b18004dff4ddf4ddf4ddf4ddf4ddf4ddf4ddf0d
:104b28004ddf4ddf4ddf4ddf4ddf45df45df45df35
:104b380045df45df45df45bf45bf45bf3dbf3dbffd
:104b48003dbf3dbf3ddf3dbf3dbf3dbf35bf35bf6d
:104b580035bf35bf35bf35bf35bf35bf359f359fed
:104b680035bf359f359f359f2d9f2d9f2d9f2d9f9d
:104b78002d9f2d9f2d9f2d9f2d9f2d9f2d9e2d9ecf
:104b8800259f257e257e257e257e257e257e257ee4
:104b9800255e255e1d5e1d5e1d5e1d5e1d5e1d5e25
:104ba800be11c671adf1748c7c898ceb744a8d0d85
:104bb800ce2bf6ebfec9eea0f680cda0740053c054
:104bc8009481ee8ad5a6a420832162005a816c07bd
:104bd8006c296c2952213100312049e08be4be3028
:104be800c6b3add19ca9ac81cda0f72bffbdffdf2b
:104bf800ffbeffbcf750cde4bd40c5617b608ba014
:104c080093a0acc083c04a004a0052206260624050
:104c1800626093c093a06a406a018260a380b44036
:104c2800d500ddc3e603fee2ff04ff25ff6ff7baf8
:104c3800e79edf7ee77ee79fd77fb71fb6ffaeff11
:104c4800aeffaeffa6ffa6df9ebf9ebfa6dfaeffec
:104c5800b6ffb6ffaeffa6dfa6dfa6dfa6dfa6df9c
:104c6800a6dfaedfaedfb6ffaeffaedf9edf96bfdc
:104c7800969f969f8e9f8e9f8e9f8e9f8e7f8e7ff4
:104c88008e7f867f867f867f867f867f867f7e7ff4
:104c98007e7f7e5f7e5f7e5f7e5f7e5f7e5f765f0c
:104ca8007e5f765f765f763f763f763f763f6e3ff4
:104cb800763f763f763f763f763f6e3f6e3f6e3f5c
:104cc8006e3f7e3f7e5f7e5f6e3f663f661f661f5c
:104cd800661f5e1f5e1f5e1f5e1f5dff5dff5dff3f
:104ce80055ff55ff55ff55ff4dff4dff4dff4dff3c
:104cf8004dff4ddf4ddf4ddf4ddf4ddf4ddf4ddf2c
:104d08004ddf4ddf4ddf4ddf4ddf45df45df45df53
:104d18003ddf3ddf3ddf3ddf45df45bf3dbf3ddfdb
:104d28003dbf3dbf3dbf3dbf3dbf35bf35bf35bfb3
:104d380035bf35bf35bf35bf35bf35bf35bf35bfcb
:104d480035bf359e359f359f2d9f2d9f2d9f2d9fbc
:104d58002d9f2d9f2d9f2d9f2d9f2d9f2d9f2d9eec
:104d6800259f259f259f259f257e257e257e257e9f
:104d78001d5e1d5e1d5e1d5e1d5e1d5e1d5e1d5e53
:104d8800954db632ae32746b7ccb74cb742b94efea
:104d9800be32ef98ef12de03ddc0cda19d026c029a
:104da8008461ff0ae626ac60834052006b4674ac0f
:104db80064296c6b6ba6290029205ac08c66956ef5
:104dc8008d2c8cec73219ba0e646ff9cfffff7df40
:104dd800ffffe79fcef9df59adab940083c0944045
:104de800a4609c6083a0520049c0522062a05a402f
:104df8006aa0c5a0b4c062006a209b80a380cd00d1
:104e0800f689ff55f735ff55f776ff94f755f79c68
:104e1800ef9edf7edf7fe79fd77fbf1fb6ffaeff26
:104e2800a6dfaedfa6dfa6df9ebf9ebfa6dfaeff72
:104e3800b6ffb6ffaeffaeffa6dfa6bfa6bfa6dfd2
:104e4800a6dfa6dfaedfb6ffb6ffaedf9ebf969f3a
:104e5800969f969f8e9f8e9f8e9f8e9f8e9f8e9fd2
:104e6800867f867f867f867f867f867f7e7f7e7f22
:104e78007e5f7e5f7e5f7e5f7e5f7e5f765f765f52
:104e8800765f765f765f765f765f763f763f763fd2
:104e9800763f7e3f7e5f763f763f6e3f6e3f6e1f6a
:104ea8006e1f765f865f865f6e3f661f661f661f92
:104eb8005e1f5e1f5e1f5e1f5dff5dff5dff5dff86
:104ec8005dff55ff55ff4dff4dff4dff4dff4ddf7a
:104ed8004dff4dff4ddf4ddf4ddf4ddf4ddf4ddf2a
:104ee8004ddf4ddf4ddf4ddf4ddf4ddf45df45bf8a
:104ef8003dbf3ddf3ddf3ddf3ddf3dbf3ddf3dbf2a
:104f08003ddf3dbf3dbf3dbf3dbf3dbf35bf35bfa9
:104f180035bf35bf35bf35bf359f35bf35bf35bf09
:104f28003dbf359f359f35bf35bf2d9f2d9e2d9e8b
:104f38002d9f2d9f2d9f259e2d9f2d9f259e2d7e3c
:104f4800259e1d7e257e257e257e257e257e255e49
:104f58001d7e1d5e1d5e1d5e1d5e1d5e1d5e1d3d72
:104f680084aba5d0a5b17c8c6c2a640a744c8cf0f7
:104f7800c5f4f799eef1d5e5ee63ff85ff87d645d1
:104f88008ca4d64deef1aca3832051c06b2574ad33
:104f98006409642984cb5ac46b2494c88c898d0c09
:104fa80084ec954c73829425ce91e77ddf38df162b
:104fb800e71ac698c6fbd79fc73884837be094401e
:104fc8009c609420946383c362a062609400838091
:104fd8009c40eee3c5226a009be0cd60b400bc4073
:104fe800d582f606ee49f733e738e779f7bcf79c40
:104ff800e79edf7ed75fd77fcf5fbf1faeffaeffd5
:10500800a6dfaedfa6df9ebf96bf96bfa6bfaeffe8
:10501800b71fb6ffaeffaeffa6dfa6dfa6dfa6df8f
:10502800a6dfa6dfaedfb6ffb6ffaeffa6bf969f30
:10503800969f969f8e9f8e9f8e7f8e9f8e9f8e9f10
:105048008e7f8e7f867f867f867f867f7e7f7e7f30
:105058007e5f7e5f7e5f7e5f7e5f7e5f765f765f70
:10506800765f765f765f765f765f763f763f763ff0
:10507800763f7e5f7e5f7e5f765f763f6e3f6e1f18
:105088006e1f765f8e5f865f6e3f661f661f661fa8
:105098005e1f5e1f5e1f5e1f5dff5dff5dff5dffa4
:1050a8005dff55ff55ff55ff4dff4dff4dff4dff70
:1050b8004dff4dff4ddf4ddf4ddf4ddf4ddf4ddf48
:1050c8004ddf4ddf4ddf4ddf4ddf45df45df45bfb0
:1050d8003dbf3dbf3ddf3ddf3dbf3dbf3dbf3dbfa8
:1050e8003dbf3dbf3dbf3dbf3dbf3dbf35bf35bfe8
:1050f800359f35bf35bf35bf359f359f359f359fa8
:10510800359f359f2d9f2dbf2d9f2d9f2d9f2d9f07
:105118002dbf2d9f2d9f2d9e2d9f2d9f2d9e2d9f09
:10512800259f1d9e1d9e257e257e257e1d7e1d7e1e
:105138001d5e1d5e1d5e1d5e1d5e1d5e1d5e1d5e8f
:1051480084ec954f9d4f7c6c6c0b63ea6c2c9d92a4
:10515800b5f3f797ff8cff44ff86ff68ff88ffa32e
:10516800eec3cdedd6d6b58b8be373637c076caa03
:1051780053e864098d2cb60fce90ce90b630adcfe3
:10518800b5f0a58e846994ed952ea58e94ec94ebdc
:1051980094cc9d4ebe74be94ae508d069527ad2519
:1051a800a50094a0a4e7b54aa4e583a0a480acc058
:1051b800cde0de61bce0ac81e682e620cd00ccc06b
:1051c800d560e560e5c0e68bef36ef7bf79fefbd76
:1051d800df7fcf5fcf5fcf3fc71fb6ffaeffaedf2a
:1051e800a6dfa6dfa6bf9ebf96bf96bfa6bfaedf4f
:1051f800b71fb6ffaedfaedfa6dfa6dfa6dfa6dfee
:10520800a6dfa6dfaedfb6ffb6ffaeffa6bf96bf2e
:10521800969f969f8e9f8e9f8e9f8e9f8e7f8e7f4e
:105228008e7f8e7f867f867f867f867f7e7f7e7f4e
:105238007e5f7e5f7e5f7e5f7e5f7e5f765f765f8e
:10524800763f765f765f765f763f763f763f765f2e
:105258007e5f7e5f867f867f7e5f763f763f763f86
:105268006e1f765f8e7f8e5f763f661f661f661f96
:105278005e1f5e1f5e1f5dff5dff5dff5dff5dffe3
:1052880055ff55ff55ff55ff4dff4dff4dff4dff96
:105298004dff4dff4ddf4ddf4ddf4ddf4ddf4ddf66
:1052a8004ddf4ddf4ddf4ddf4ddf4ddf45df45bfc6
:1052b8003ddf3dbf3dbf3dbf3dbf3dbf3dbf3dbfe6
:1052c8003dbf3dbf3dbf3dbf3dbf3dbf35bf35bf06
:1052d800359f359f359f35bf35bf359f359f359fe6
:1052e8002dbf2dbf2d9e2d9f2d9f2d9f2d9f2d9f17
:1052f8002d9f2d9f2d9f2d9f2d9f2d9f259f2d9f4e
:105308002d7f259e1d9e259e2d7e257e257e1d7e1c
:105318001d7e1d7e255e1d5e1d5e1d5e1d5e1d5e65
:1053280074ab7cab84cd6c2b6c2c744c84aeae14fb
:10533800add4ce72de4ae627de47d666d667c5c646
:10534800c5c5ad4a9d2c9cec94ab952b8ced7c8c03
:1053580054085bc78d0bbe4fbe50be2fadceb610e6
:10536800b5f0a56d94ec94cbadafc671c652c673bb
:10537800ce93d6f5df15e735df55ce93a5ef952605
:1053880084809d059d089ce9c5ebad049c60ace05c
:10539800b500bd40cda0e681eec1dda1f620f680c6
:1053a800fea0fea0fec0fec0ff2af79aef9fdf9f77
:1053b800d75fc73fc73fc73fbf1fb71faeffaeff8f
:1053c800a6dfa6dfa6df9ebf96bf9ebfa6dfaeff05
:1053d800b6ffaeffaedfa6dfa6dfa6dfa6dfa6df3d
:1053e800a6dfa6dfaedfaeffb6ffaeff9edf96bf3d
:1053f80096bf969f969f8e9f8e9f8e9f8e7f8e7f45
:105408008e7f8e7f867f867f867f867f7e7f7e7f6c
:105418007e5f7e5f7e5f7e5f7e5f765f765f765fb4
:10542800765f765f765f765f763f763f765f7e5f04
:105438007e5f7e5f7e5f7e5f7e5f763f763f6e3ffc
:105448006e1f765f8e7f8e7f763f6e1f661f661f8c
:105458005e1f5e1f5e1f5dff5dff5dff5dff5dff01
:1054680055ff55ff55ff4dff4dff4dff4dff4dffbc
:105478004dff4ddf4ddf4ddf4ddf4ddf4ddf4ddfa4
:105488004ddf4ddf4ddf4ddf4ddf45df45df45dfcc
:105498003ddf3ddf3dbf3dbf3dbf3ddf3dbf3dbfc4
:1054a8003dbf3dbf3dbf3dbf3dbf3dbf35bf35bf24
:1054b8003d9f359f35bf35bf35bf35bf359f359fbc
:1054c800359f2dbf2dbf2dbf2d9f2d9f2d9f2d9f0c
:1054d8002d9f2d9f2d9f259f2d9f259f259f2d9f7c
:1054e8002d7f257e259e257e2d7e257e257e257e6b
:1054f8001d7e257e255e1d5e1d5e1d5e155e155e8c
:10550800adeeadce9d8e746b746d8cefadd4b615cb
:105518009d52add0bdefc62ebe2ec64ec66fc6304c
:10552800b58c9d0a9d2bbe0ed6afd6d0d6b07ccbff
:105538005c0753e674a9be0fc64fceb1d713e73246
:10554800d6f3a58e8ccda56eced5f7ddf7fdffdea3
:10555800ffdef7deefbeef9eef9fe79fc7398508b6
:1055680084618481848284839ce58c218be09c20e7
:105578009c41aca0c580c580c520d540ede0fe802b
:10558800fec0fee1ff68ff87ff67ff75ef9fdf7fc3
:10559800cf5fc73fbf1fc71fbf1fb71faf1faedffc
:1055a800aedfa6df9edf9edf9edf9ebfa6dfaeffdb
:1055b800b6ffaedfaedfa6dfa6dfa6dfa6bfa6df9b
:1055c800a6dfa6dfa6dfaedfaeffa6df9ebf969ff3
:1055d800969f96bf969f8e9f8e9f8e9f8e7f8e7f63
:1055e8008e7f867f867f867f867f7e7f7e7f7e7f9b
:1055f8007e5f7e5f7e5f7e5f7e5f765f765f765fd3
:10560800765f765f765f763f763f763f765f7e5f42
:105618007e5f7e5f7e5f7e5f7e5f763f763f6e3f1a
:105628006e1f765f967f8e7f763f6e1f661f5e3f8a
:105638005e1f5e1f5e1f5e1f5dff5dff5dff5dfffe
:1056480055ff55ff4dff4dff4dff4dff4dff4dffe2
:105658004ddf4ddf4ddf4ddf4ddf4ddf4ddf4ddfe2
:105668004ddf4ddf4ddf4ddf45bf45bf45df45bf52
:1056780045df3ddf3dbf3dbf3dbf3ddf3ddf3ddf9a
:105688003dbf3dbf3dbf3dbf3dbf3dbf35bf35bf42
:105698003d9f3dbf35bf35bf35bf35bf359f2dbf9a
:1056a800359f2d9f2d9f2d9f2d9f259f259f259fa2
:1056b800259e2d9f259f259f259f259f1d9e259fc4
:1056c8002d9f259f259e257e257e1d7e1d7e255e80
:1056d8001d7e1d5e1d5e1d5e1d5e1d5e155e155eda
:1056e800f7b4ffd4e77484ec746dadb2ce96be55b2
:1056f8009d11df13fff7f7d7f7d7f796f774ff96e3
:10570800ff92eeebe6a7ff2bff8de6ebdead952cc7
:105718006c6a54066447ce90f794f794f7b4ef5543
:10572800ef33d6b29d4a8cc9ce51f79df7bff7df4c
:10573800f79fefbfe79fe77ee77fe79fc75c8d2b6b
:105748009d4595016b8063406b6062c06aa06ac02a
:10575800732083809c60acc0b4a0f661fea0dda07d
:10576800d500f6c4ffb6fffcffb5ff53f799df5f1e
:10577800cf5fc71fbf1fc71fbf1fb71faeffaedf5b
:10578800a6dfa6dfa6bf9edf9edfa6dfa6dfaedf11
:10579800aeffaedfaedfa6dfa6dfa6bfa6bfa6dfe1
:1057a800a6dfa6dfa6dfa6dfa6dfa6df9ebf96bf21
:1057b800969f96bf969f8e9f8e9f8e7f8e7f867fa9
:1057c8008e7f867f867f867f867f7e7f7e7f7e7fb9
:1057d8007e5f7e5f7e5f7e5f7e5f765f765f765ff1
:1057e800765f765f765f763f763f763f765f7e5f61
:1057f8007e5f765f763f765f7e5f765f763f6e3f51
:105808006e1f765f8e7f8e5f763f6e1f661f661fe8
:105818005e1f5e1f5e1f5dff5dff5dff5dff5dff3d
:1058280055ff55ff4dff4dff4dff4dff4dff4dff00
:105838004ddf4ddf4ddf4ddf4ddf4ddf45df4ddf08
:1058480045bf4ddf4ddf45bf45df45bf45bf45bfc0
:1058580045df45bf3dbf3dbf3dbf3dbf3dbf3dbf30
:105868003dbf3dbf3dbf3dbf3dbf3dbf35bf35bf60
:105878003dbf35bf35bf35bf35bf359f359f2dbfc0
:10588800359f2d9f2d9f2d9f2d9f259f259f1d9ec9
:10589800259f259f259f1d9e259e259e1d9e259ff4
:1058a800259f259f259e259e1d7e159e157e1d5e86
:1058b800155e155e1d5e1d5e1d5e1d5e1d5e1d5e18
:1058c800d710e730df3284cb7c8dc674d6d6be5471
:1058d800a593df15f7b5ef96f796ef53e6f0d6ae3a
:1058e800e6adeeeaeec2f680de00c540b4e084c55f
:1058f8006c8953e55c079d4cb52bc5aae6ecbda9a0
:10590800eec8ffabdf0d94c8c5cbeef3f77cf7fe0e
:10591800f7beefbfe79fef9ee73ee79fc71c84a651
:105928009ce09d217bc073a07b80734062c05a407d
:105938005a205a206ac08be0a420ee60fee0c4e042
:10594800dd80fee0f6e6ff57f7dff7beef7edf7f8c
:10595800cf5fbf1fbeffbf1fbf1fb6ffaedfaebf0b
:10596800a6dfa6dfa6dfa6dfa6dfa6bfa6bfa6df47
:10597800a6dfa6dfa6dfa6dfa6dfa6dfa6bfa6df17
:10598800a6dfa6dfa6bfa6dfa6dfa6bf9ebf96bf7f
:1059980096bf96bf969f8e9f8e9f8e7f8e7f867fa7
:1059a800867f867f867f867f867f7e7f7e7f7e7fdf
:1059b8007e5f7e5f7e5f7e5f7e5f765f765f763f2f
:1059c800765f765f763f763f763f763f765f7e5f9f
:1059d8007e3f763f765f7e5f7e5f765f6e3f6e3f8f
:1059e8006e1f765f8e7f865f6e3f661f661f661f1f
:1059f800661f5e1f5e1f5e1f5dff5dff55ff55ff43
:105a080055ff55ff4dff4dff4dff4dff4dff4dff1e
:105a18004ddf4ddf4ddf4ddf4ddf4ddf45df4ddf26
:105a280045bf45df45df45df45df45bf45df45bfae
:105a380045bf45bf45bf3ddf3dbf3dbf3dbf3dbf46
:105a48003dbf3dbf3dbf3dbf3dbf3dbf35bf35bf7e
:105a580035bf35bf359f359f359f359f359f2dbf46
:105a68002d9f2d9f2d9f2d9f2d9f2d9f259f259edf
:105a78001d9f259f1d9f1d9e259f259e1d9e259e22
:105a88001d9e1d9e1d9e257e257e1d7e157e155ef6
:105a98000d5e155e1d5e1d5e1d5e1d5e1d5e1d5e3e
:105aa8009de99dc8ae0b7cca7c6cce75e738be7587
:105ab800c674f797ffb6f7d7efb6d6b1ce90df50da
