:020000040000fa
:10000000f8ff0220f9bd0200b5ca02003f5e0200ff
:10001000bdca02003f5e02003f5e02000000000019
:10002000000000000000000000000000c5ca02003f
:10003000cdca0200000000003f5e02003f5e0200e9
:100040003f5e02003f5e02003f5e02003f5e020034
:100050003f5e02003f5e02003f5e02003f5e020024
:100060003f5e02003f5e02003f5e02003f5e020014
:100070003f5e02003f5e02003f5e02003f5e020004
:100080003f5e02003f5e02003f5e02003f5e0200f4
:100090003f5e02003f5e02003f5e02003f5e0200e4
:1000a0003f5e02003f5e02003f5e02003f5e0200d4
:1000b0003f5e02003f5e02003f5e02003f5e0200c4
:1000c0003f5e02003f5e02003f5e02003f5e0200b4
:1000d0003f5e02003f5e02003f5e02003f5e0200a4
:1000e0003f5e02003f5e02000000000000000000d2
:1000f000000000003f5e02003f5e02003f5e020023
:100100003f5e02003f5e02003f5e02003f5e020073
:100110003f5e02003f5e02003f5e02003f5e020063
:100120003f5e02003f5e02003f5e02003f5e020053
:100130003f5e02003f5e02003f5e02003f5e020043
:100140003f5e02003f5e02003f5e02003f5e020033
:100150003f5e02003f5e0200000000000000000061
:10016000000000000000000000000000000000008f
:10017000000000000000000000000000000000007f
:100180003f5e02003f5e02003f5e02003f5e0200f3
:10019000000000003f5e02003f5e02003f5e020082
:1001a0003f5e02003f5e02003f5e02003f5e0200d3
:1001b0003f5e02003f5e02003f5e02003f5e0200c3
:1001c0003f5e02003f5e02003f5e02003f5e0200b3
:1001d0003f5e020000000000000000000000000080
:1001e0000000000000000000000000003f5e020070
:1001f0003f5e02003f5e02003f5e02000000000022
:100200000000000000000000000000003f5e02004f
:100210003f5e02003f5e02003f5e02003f5e020062
:100220003f5e02003f5e02003f5e02003f5e020052
:100230003f5e02003f5e02003f5e02003f5e020042
:10024000000000003f5e02003f5e02003f5e0200d1
:100250003f5e02003f5e02003f5e02003f5e020022
:020000040000fa
:10026000f8b500bff8bc08bc9e46704765c30200e5
:10027000f8b500bff8bc08bc9e46704741c30200f9
:020000040000fa
:08028000e88702000100000004
:020000040000fa
:10028800fffffffffffffffff7bef7bef7bef7be9a
:10029800f7bef7bef7bef7bef7bef7bef7bef7beae
:1002a800f7bef7bef7bef7bef7bef7bef7bef7be9e
:1002b800f7bef7bef7bef7bef7bef7bef7bef7be8e
:1002c800f7bef7bef7beffdeffdeffbef7bef7be26
:1002d800f7bef7bef7bef7bef7bef7bef7bef7be6e
:1002e800f7beffdeffdeffdfffdfffffffffffffe1
:1002f800ffffffffffffffffffffffffffffffff06
:10030800ffdff7bef7bef7bef7bef7bef7bef7be14
:10031800f7bef7bef7bef7bef7bef7bef7bef7be2d
:10032800f7bef7bef7bef7bef7bef7bef7bef7be1d
:10033800f7bef7bef7bef7bef7bef7bef7beffdee5
:10034800ffdef7bef7bef7bef7bef7bef7bef7bed5
:10035800f7bef7beffbeffdfffdfffdfffdfffdf18
:10036800ffdfffdfffffffffffffffffffffef7d67
:10037800ef5dffffffffffffffffffdff7bef7bee9
:10038800f7bef7bef7bef7bef7bef7bef7bef7bebd
:10039800f7bef7bef7bef7bef7bef7bef7bef7bead
:1003a800f7bef7bef7bef7bef7bef7bef7bef7be9d
:1003b800f7bef7bef7bef7bef7beffbef7bef7be85
:1003c800f7bef7bef7bef7bef7bef7beffbeffdf4c
:1003d800ffdfffdfffdfffdfffdfffdfffffffffe5
:1003e800ffffffffffffffffffffffffffffffff15
:1003f800fffffffff7dff7bef7bef7bef7bef7be9a
:10040800f7bef7bef7bef7bef7bef7bef7bef7be3c
:10041800f7bef7bef7bef7bef7bef7bef7bef7be2c
:10042800f7bef7bef7bef7bff7bff7bff7bff7bf17
:10043800f7bff7bff7bff7bff7bef7bef7bef7bf07
:10044800f7bff7dff7dff7dff7dff7dff7dfffdf0c
:10045800ffdfffdfffdfffdfffffffffffffffff24
:10046800ffffffffef5da5147bcf73ae73ae73aed6
:10047800738e738e73ae73ae73ae73ae738e738eec
:1004880073ae738e738e73ae73ae738e738e738efc
:10049800736e736e738e6b6e6b6d6b6d6b6d6b6d58
:1004a8006b6d6b6d6b6d6b6d6b6e6b6d6b4d6b4dc3
:1004b8006b4d6b4d6b4d6b4d6b6d6b6d6b6d6b6df4
:1004c8006b6d6b6d6b6d6b6d738e94b2dedbffffc6
:1004d800ffffffffffffffffffffffffffffdefb49
:1004e8009cd373af73ae73ae73ae73ae73ae73aead
:1004f80073ae73ae73ae738e738e738e738e738e8c
:10050800738e73ae73ae738e738e738e73ae73ae5b
:10051800738e738e738e738e738e738e738e738ecb
:10052800738e738e738e6b6d6b6d6b6d6b6d6b6d88
:100538006b4d6b4d6b6d738e738e738e738e738e66
:10054800738e7bcfa534ef7dffffffffffffffff1b
:10055800ffffffffffffffdfbdf78430738e738e51
:10056800738e738e73ae73ae738e738e738e73ae1b
:10057800738e738e738e738e738e6b6e6b6d6b6ee4
:10058800736e738e738e738e738e738e6b6e6b6ecb
:10059800738e738e6b6e6b6e738e738e738e6b6ec3
:1005a8006b6d6b6d6b6d6b6d6b6d6b6e738e738e30
:1005b800738e738e738e738e6b6e6b6d9492dedb9f
:1005c800ffffffffffffffffffffffffffffffff33
:1005d800ef5da5776c546413641364136413641398
:1005e800641364136413641364136413641364134b
:1005f800643364336433643364336413641364139b
:1006080064136413641364336433643464336413a9
:100618006413641364135c135bf35bf35c135c1384
:100628005c135c135c135c135c135bf35bf35bf3ad
:100638005c135c135c1484d5cebbffffffffffff88
:10064800ffffe71c634d4a6a738e73ae738e6b8e21
:100658006b6e6b4d6b6e738e738e6b8e6b6e6b6e7b
:100668006b6e6b6e6b6e6b6e6b6e6b4d632d630c8e
:100678005aec5aec5acb52cb52ab52ab528a4a6a1a
:100688004a6a4a6a4a6a4a6a4a6a4a6a4a4a4a4a02
:100698004a6a4a4a4a4a4a6a4a6a4a6a4a6a4a6af2
:1006a8004a4a4a4a4a494229420831a74229b59644
:1006b800ffffffffffffffffffffffffc6385acb1b
:1006c800632c73ae73ae73af738e738e738e738e2b
:1006d80073ae73ae738e6b6e6b6e6b6e6b6e6b6e92
:1006e8006b4d6b4d632d632d630c630c5aec5aec08
:1006f8005aec5acb5acb52ab52ab528b52ab52ab91
:1007080052ab52ab52ab528a528a528a4a6a4a6aee
:100718004a6a4a6a4a6a4a6a4a6a4a6a4a6a4a6a31
:100728004a6a42083186630ce71cffffffffffffa0
:10073800ffffffffffdf8c515acb738e73af738eb1
:10074800738e738e738e73ae738e738e738e738e79
:10075800738e6b6e6b6d6b4d632d630c630c630c4a
:10076800630c630c5aec5acb52ab52ab52ab528b64
:10077800528b528b528b528b528b528b528b528a8a
:10078800528a4a6a528a528a4a6a528a528b528ad0
:100798004a6a4a6a4a6a4a4a4a49422931a7420881
:1007a800b5b6ffffffffffffffffffffffffdf1ce7
:1007b8005bb133534c574c584c374c574c574c57ec
:1007c8004c574c574c574c374c574c574c574c5729
:1007d8004c574c574c574c574c574c374c374c3759
:1007e8004c374437443744373c173bf73bf73bf724
:1007f80033f733f733f733f733d733d733d733d721
:1008080033d72bb72bb62b9623962376235623560e
:100818001b561b561b3612b322b0a577ffffffffee
:10082800f7be8c7252aa8c72632d5aec5aec5aecb1
:100838005aec5aec5aec5aec5aec5aec5aec5aec80
:100848005aec5aec5aec5aec5aec5aec5aec5acc90
:100858005acb52cb52ab52ab52ab52ab52ab52ab60
:1008680052ab52ab52ab52ab52ab52ab52ab52ab98
:1008780052ab52ab52ab52ab52ab52ab52ab52ab88
:1008880052ab52ab52ab528b528b528a31a739c7fb
:10089800dedbfffffffffffffffff79e630c630c2c
:1008a80073af630d5b0c630d630c5aec5aec5aec96
:1008b8005aec5aec5aec5aec5aec5aec5aec5aec00
:1008c8005aec5aec5acc5acc5acc5acb52cb52cbc3
:1008d80052ab52ab52ab52ab52cb52cb52cb52cba8
:1008e8005acb5acb5acb5acc5acb52cb52cb52ab0f
:1008f80052ab52cb52ab52ab52ab52ab52ab52abe8
:1009080052ab52ab4a6a21258410f7beffffffffa6
:10091800ffffffffb59652aa8410738e630d5b0c20
:100928005b0c5b0c5aec5aec5aec5aec5aec5aec4d
:100938005aec5aec5aec5aec5aec5aec5aec5aec7f
:100948005aec5acc5acb52ab52ab52ab52ab52ab1d
:1009580052ab52cb5acb5acb5acc5acb5acb5acb96
:1009680052cb5acb5acc5acc5acb5acb5acb52cb65
:1009780052ab52ab52ab528b528b528b528b31a72c
:100988004208d6baffffffffffffffffffff7c947f
:100998003bb44cbb34192bb82bb82bb82bb82bd87d
:1009a8002bd82bd82bd82bb82bb82bd82bb82bd887
:1009b8002bd82bd82bd82bb82bb82bb82bb82bb8b7
:1009c8002bb82bb82bb82bb82b98239823982bb877
:1009d8002bb82b982b982b982bb82bb82b982b9798
:1009e8002b97239723972397239723772377237787
:1009f80023772377237723970af5228fbdf8ffff04
:100a0800e73c630c73af73cf528b52ab52ab52ab14
:100a180052ab52ab52ab52ab52ab52ab52ab52abe6
:100a280052ab52ab52ab52ab52ab52ab528a4a6a40
:100a38004a6a4a6a4a6a4a6a4a6a4a6a4a4a4a4a4e
:100a48004a6a4a6a4a6a528b528b528b528b528b31
:100a5800528b528b528b528a528b528b528a528aa9
:100a6800528a528a528a528a528a52aa4a29292575
:100a780094b2ffffffffffffffffce9a4a497bcfeb
:100a88005aec52ab52ab52ab52ab52ab52ab52ab2d
:100a980052ab52ab52ab52ab52ab52ab52ab52ab66
:100aa80052ab52ab52ab52ab52ab528a4a6a4a6a09
:100ab8004a4a4a4a4a4a4a6a4a8a528b52ab52ab13
:100ac80052ab52ab52ab52ab52ab52ab52ab52ab36
:100ad80052ab52ab52ab528b528b528b528b528ac7
:100ae800528a528a52ab39e839e8e71bffffffff09
:100af800ffffffff73ae6b4d6b6e5acc52cb5acbd8
:100b080052cb52ab52ab52ab52ab52ab52ab52abd5
:100b180052ab52ab52ab52ab52ab52ab52ab52abe5
:100b280052ab52ab4a6a4a6a4a4a4a4a4a4a4a4a0b
:100b38004a6a528b52ab52ab52ab52ab52ab52ab2e
:100b480052ab52ab52ab52ab52ab52ab52ab52abb5
:100b5800528b528b528a528a528a528a528a528baa
:100b680021259d14ffffffffffffffffdedb53b1d1
:100b78005cb8445a1b572397239723772377237707
:100b8800239723972397239723772377237723770d
:100b9800237723772377237723772377237723777d
:100ba80023772377237723772357235723762377ae
:100bb800237723772377237723772377237723765e
:100bc8002356235623562356235623562356235655
:100bd800235623562356237623b802507c53ffde30
:100be800e71c5aeb7bcf6b6e528b52ab52ab52abbe
:100bf80052ab52ab52ab52ab52ab52ab52ab52ab05
:100c080052ab52ab52ab52ab52ab52ab528a528a36
:100c18004a8a4a8a4a8a4a8a4a8a4a6a4a6a4a6a8c
:100c28004a6a4a6a4a6a4a8a528b528a528a528a5b
:100c3800528a528a528a528a528a528a528a528acc
:100c4800528a528a528a4a6a4a6a4a8a4a4a3166a1
:100c580083f0ffffffffffffffffc6184a497bf045
:100c68005acc52ab52ab52ab52ab52ab52ab52ab6b
:100c780052ab52ab52ab52ab52ab52ab52ab52ab84
:100c880052ab52ab52ab52ab4a6a4a4a528b6b4d8b
:100c98007bef7bf073af630c4a6a4a4a528a52abc5
:100ca80052ab52ab52ab52ab528b528b528b528bd4
:100cb800528b528b528b528b528b528b528a528a46
:100cc8004a8a528a528b4a4a31a6d69affffffffb8
:100cd800ffffffdf632d6b6d632d52cb52cb52cbe1
:100ce80052cb52cb52ab52ab52ab52cb52cb52ab94
:100cf80052ab52ab52ab52ab52ab52ab52ab52ab04
:100d0800528b4a6a4a6a630c73af7bf07bf06b6e56
:100d180052ab4a4a4a6a528b52ab52ab52ab52abb5
:100d280052ab52ab52ab528b528b528b528b528b73
:100d3800528b528a528a4a8a4a8a4a8a4a8a52abc9
:100d480029668c71f7beffffffffffffc65953707e
:100d58005cb83c391b572b972397239723972397e6
:100d6800239723972397239723972377237723770b
:100d7800237723772377237723772377237723779b
:100d880023772377237723772357235723572377eb
:100d980023772376237723772376237623562356c0
:100da8002356235623562356235623562356235673
:100db800235623562356235623b80a716bf1f79d01
:100dc800e71c5acb73ae6b6e528b52ab52ab52ab25
:100dd80052ab52ab52ab52ab52ab52ab52ab52ab23
:100de80052ab52ab52ab528b4a6a4a8a94b3c6385a
:100df800c618c618c638c638c638c618c618c6189b
:100e0800c618c618a53452ab4a6a528a528a528a00
:100e1800528a528a528a528a528a528a528a528aea
:100e2800528a528a4a8a4a6a4a6a4a8a4a6a318687
:100e380083f0ffffffffffffffffc6184a697bf043
:100e48005acb52ab52ab52ab52ab52ab52ab52ab8a
:100e580052ab52ab52ab52ab52ab528b528b52abe2
:100e6800528b528b528b4a4a4a6a7bd0bdf7ef5d50
:100e7800ffdfffdff7bee71cb5966b8e4a4a528a42
:100e880052ab52ab52ab52ab528b528a528b528bf3
:100e9800528b528b528b528b528b528b528a528a64
:100ea8004a8a4a8a52ab4a6a39c7ce79ffffffff9e
:100eb800ffffffdf632d6b6d632d52cb52cb52cbff
:100ec80052cb52cb52cb52cb52ab52ab52ab52abb2
:100ed80052ab52ab52ab52ab52ab52ab52ab528b42
:100ee8004a4a632dad55e71cf7beffdfffdfef7df4
:100ef800c6397bf04a6a4a6a528b52ab52ab52ab44
:100f080052ab52ab52ab528b528b528b528a528b92
:100f1800528b528a4a8a4a8a4a8a4a8a4a8a52cbcf
:100f280029668c51f7beffffffffffffc6395350fc
:100f38005c983c391b572b97239723972377239744
:100f48002397239723772377237723772377237789
:100f580023772377237723772377237723772377b9
:100f6800237723772377237723772357235623570a
:100f7800235623562357235723562356235623569f
:100f88002356235623562356235623562356235691
:100f980023561b561b56235623b80a7163d1f79d57
:100fa800e71c5aaa73ae6b6e4a8a52ab528b52ab8d
:100fb80052ab52ab52ab52ab52ab52ab52ab52ab41
:100fc800528b528b528b528a42294a8ace59ffff42
:100fd800ffffffffffffffffffffffffffffffff19
:100fe800ffffffffdefc5acc42294a6a4a8a4a8a36
:100ff8004a8a528a528a528a528a528a528a528a11
:10100800528a528a4a8a4a6a4a6a4a6a4a6a3187c4
:101018007befffffffffffffffffbe184a697bcf93
:1010280052ab528b52ab52ab52ab52ab52ab52abf0
:1010380052ab52ab52ab52ab52ab528b528b528b20
:10104800528b528a4a4a5aecb596f79effffffff29
:10105800ffffffffffffffffffffef5d84314a6add
:10106800528b52ab52ab528b528b528a528a528b52
:10107800528a528a528b528b528b528b528a4a8a8c
:101088004a8a4a6a528b4a6a39c7ce59ffffffff1c
:10109800fffff7be632c6b6d632d52cb52ab52ab87
:1010a80052ab52ab52cb52cb52ab52ab52ab52ab10
:1010b80052ab52ab52ab52ab52ab528b528b4249f2
:1010c8007bf0defbffffffffffffffffffffffffe0
:1010d800fffff7be9cf44a6a4a6a528b528b528bc6
:1010e800528b528b528b528b528b528a528a528b12
:1010f800528b528a4a8a4a8a4a6a4a6a4a6a52cb4e
:1011080029668430f7beffffffffffffc6394b504b
:101118005c783c191b5723972397237723772377ea
:1011280023772377237723772377237723772377e7
:1011380023772377237723772377237723772377d7
:101148002377237723772377237723572356235629
:1011580023562356235623562356235623562356bf
:1011680023562356235623562356235623561b56b7
:101178001b561b561b561b5623b80a7163b1f77dc5
:10118800e71c52aa738e6b4d4a6a528a528a528b56
:10119800528b528b528b528b528b52ab52ab528b1f
:1011a800528a528a528a4a8a42294a8ace59ffff6b
:1011b800ffffffffffffffffffffffffffffffff37
:1011c800ffffffffdefb52ab42294a6a4a6a4a6abe
:1011d8004a6a4a8a528a528a528a528a528a4a8a5f
:1011e8004a8a4a8a4a6a4a6a4a4a4a6a4a6a318733
:1011f8007bcfffffffffffffffffbdf74a497bcf14
:1012080052ab528a52ab528b528b528b528b528baf
:1012180052ab52ab528b528b528b528a528a528aa1
:10122800528a4a6a4a8ab596ffffffffffffffff0f
:10123800e73cd69aef7dffffffffffffef5d6b6e88
:101248004a6a528a528b528a528a4a8a4a8a528aed
:10125800528a528a528b528b528b528a4a8a4a6ad3
:101268004a6a4a6a528a528a39a7c638ffffffff7c
:10127800fffff7be632c6b6d632d52ab52ab52abc5
:1012880052ab52ab52ab52ab52ab52ab52ab52ab6e
:1012980052ab528b528b528b528a528a42496b6e96
:1012a800e73cfffffffffffff7bee71cef7dfffff7
:1012b800ffffffffffdf8c724a4a4a6a528b528a4d
:1012c800528a528a528a528a528a528a528a528a36
:1012d800528a4a8a4a6a4a6a4a6a4a6a4a6a52abd5
:1012e80029668410f79effffffffffffc639537082
:1012f8005c983c191b56237723772377237723772a
:101308002377237723772377237723772377237705
:101318002377237723772377237723772356235637
:10132800235623762377237623562356235623568c
:10133800235623562356235623561b5623562356e5
:101348001b561b561b5623561b561b561b361b3645
:101358001b361b561b561b5623b80a715bb0f77d0c
:10136800e71c52aa738e634d4a6a528a528a528a7d
:10137800528a528a528a528a528a528a528a528a85
:10138800528a4a8a4a6a4a6a42494a6a9cd3ce7948
:10139800ce59ce39c638c638c618c638ef5dfffff5
:1013a800ffffffffce59424942494a6a4a6a4a6ae0
:1013b8004a6a4a6a4a6a4a6a4a6a4a6a4a6a4a6a85
:1013c8004a6a4a6a4a6a4a6a4a494a6a4a6a318693
:1013d8007bcfffffffffffffffffbdf74a4973af5a
:1013e80052ab4a8a528b528b528a528a528a528afa
:1013f800528a528a528a528a528a528a528a528a05
:101408004a6a4229632def5dffffffffffffb59694
:10141800526a39c7632ddedbffffffffffff9cf435
:101428004a494a6a528a4a8a4a6a4a6a4a6a4a8acd
:101438004a8a4a8a528a528a4a8a4a6a4a6a4a6a54
:101448004a6a4a6a528a528b39c7c638ffffffff79
:10145800fffff7be630c6b6d632d52ab528b52ab23
:1014680052ab52ab52ab52ab52ab52ab52ab528bac
:10147800528b528b528a528a528a4a6a4a49bdd73b
:10148800ffffffffffffe73c7bef4229630cc638f5
:10149800ffffffffffffdefb5aec4a494a8a528ae8
:1014a800528a4a8a4a8a4a8a4a8a4a8a4a8a4a8a8c
:1014b8004a8a4a6a4a6a4a6a4a6a4a6a4a4a52ab3b
:1014c80029668410f79effffffffffffc63953719f
:1014d8005c9834191b362377237723772377237770
:1014e8002377237723772377237723562356235687
:1014f800235623562356235623562356235623561c
:10150800235623762356235623561b561b561b5603
:101518001b561b561b5623561b561b561b561b5633
:101528001b361b561b561b561b561b361b361b36ab
:101538001b361b361b361b3523980a715bb0f77dab
:10154800e71c52ab6b6d632d4a6a528a4a8a4a8af3
:101558004a8a4a8a4a8a4a8a4a8a4a8a4a8a4a6a03
:101568004a6a4a6a4a6a4a6a4a6a4a49420841e8e9
:1015780039e739e739c739a729655aabe71cffffaf
:10158800fffff79e843139c84a6a4a6a4a6a4a6a3a
:101598004a6a4a6a4a6a4a6a4a6a4a6a4a6a4a6aa3
:1015a8004a6a4a6a4a4a4a4a42494a4a4a6a296641
:1015b8007bafffffffffffffffffbdf74229738ee1
:1015c800528b4a6a528a528a528a528a4a8a4a8a6a
:1015d8004a8a4a8a4a8a4a8a4a8a4a6a4a6a4a6ac3
:1015e8004a6a42296b6ef79efffffffff79e5acbb0
:1015f80029253186212594d3ffdfffffffffad7535
:1016080042294a494a6a4a6a4a6a4a6a4a6a4a6a9c
:101618004a6a4a6a4a8a4a8a4a6a4a6a4a6a4a6ae2
:101628004a6a4a49528a528b39c7c638ffffffffb8
:10163800fffff79e5aeb632d630c528b528a528b35
:10164800528b528b528b528b528a528b528b528aac
:10165800528a528b528a528a4a8a42295acbdefcd3
:10166800ffffffffffff84102945318629454a49be
:10167800d6baffffffffffff8c724a8a4a4a4a8a9e
:101688004a6a4a6a4a6a4a6a4a6a4a6a4a6a4a6ab2
:101698004a6a4a6a4a6a4a6a4a6a4a4a4a4952ab9a
:1016a80029668410f79effffffffffffc6394b71c5
:1016b800547833f91b36237623772376235623561b
:1016c8002356235623562357235623562356235649
:1016d80023561b561b561b561b561b561b561b5672
:1016e8001b561b561b561b561b561b361b361b36ca
:1016f8001b361b561b561b561b561b361b561b569a
:101708001b361b561b561b361b361b361b361b3609
:101718001b361b361b361b35239802515b90f77d11
:10172800e71c52aa6b4d632d4a6a4a8a4a6a4a6a7a
:101738004a6a4a6a4a6a4a6a4a6a4a6a4a6a4a6a01
:101748004a6a4a6a4a6a4a6a4a4a4a4942294208e5
:1017580042083a08420839c739c79492ffffffff89
:10176800ffffd69a4a4942084a494a4a4a4a4a6ab7
:101778004a6a4a6a4a6a4a6a4a6a4a6a4a6a4a4ae1
:101788004a4a4a4a4a494a4942494a4a4a4a2966c1
:101798007bcfffffffffffffffffbdf742286b4d29
:1017a8004a8a4a6a4a8a4a8a4a8a4a8a4a6a4a6af1
:1017b8004a6a4a6a4a6a4a6a4a6a4a6a4a6a4a6a81
:1017c8004a6a42095aecef5dffffffffffdf7bf03b
:1017d800294529453186b596ffffffffffff9cd3ba
:1017e80042084a494a6a4a6a4a6a4a6a4a6a4a6adc
:1017f8004a6a4a6a4a6a4a6a4a6a4a6a4a6a4a4a61
:101808004a494a494a6a528a31a6c638ffffffff49
:10181800fffff79e630c630c5aec4a8a528a528a7d
:10182800528a528a528a528a4a8a528a528a4a8ae0
:101838004a8a4a8a4a8a4a8a4a6a4209632de73d9d
:10184800ffffffffef7d52ab3186420839e829667a
:10185800ad55ffffffffffffb5b65acb42294a6ad5
:101868004a6a4a6a4a6a4a6a4a6a4a6a4a6a4a6ad0
:101878004a6a4a6a4a6a4a6a4a4a4a494a4952abd9
:1018880029667beff79effffffffffffc6394b710d
:10189800545833f81b3623562356235623562356bb
:1018a8001b56235623562356235623561b561b5680
:1018b8001b361b561b561b561336131613161316b8
:1018c800131613161315131512f512f512f512f552
:1018d80012f51b361b561b561b561b361b361b3662
:1018e8001b361b361b361b361b361b361b361b3569
:1018f8001b351b361b361b35239802515b90ef7d39
:10190800e71c52aa6b4d630d4a6a4a6a4a6a4a6ad8
:101918004a6a4a6a4a6a4a6a4a6a4a6a4a6a4a6a1f
:101928004a6a4a6a4a4a4a4a4a494a494a494249db
:1019380042294229422939e85aecdefbffffffff22
:10194800f7be94923186422942494a494a494a4a4d
:101958004a4a4a4a4a4a4a6a4a6a4a4a4a494a49a1
:101968004a494a494a494249422942494a4a296612
:101978007bcfffffffffffffffffbdf74208632d8f
:101988004a8a4a6a4a6a4a6a4a6a4a6a4a6a4a6a8f
:101998004a6a4a6a4a6a4a6a4a6a4a6a4a4a4a4adf
:1019a8004a4a42294229b596ffffffffffffe73c5d
:1019b8008c715aec9cd3f79effffffffef5d630c21
:1019c80042084a494a4a4a4a4a4a4a6a4a4a4a4a9a
:1019d8004a6a4a6a4a6a4a6a4a6a4a4a4a4a4a49c0
:1019e8004a494a494a6a528a31a6c618ffffffff88
:1019f800fffff79e630c5aeb5acc4a8a4a8a4a8af6
:101a08004a8a4a8a4a8a4a8a4a8a4a8a4a8a4a8a2e
:101a18004a8a4a6a4a6a4a6a4a6a4208630ce73c3e
:101a2800fffffffff79e5aec318639e839e829664f
:101a3800a534ffdfffffffffc6595aec3a084a6a90
:101a48004a6a4a6a4a6a4a6a4a6a4a6a4a4a4a4a2e
:101a58004a6a4a6a4a6a4a4a4a494a49424952ab20
:101a680029667beff79effffffffffffc6394b504c
:101a78004c5733d81b1623561b56235623561b5632
:101a88001b561b561b561b561b361b361b561b3626
:101a98001b361b361b361b362b963bd733d733b733
:101aa80033b733b733b633b633b63396339633b624
:101ab80033b623561b361b561b361b361b361b36b6
:101ac8001b361b361b361b361b361b361b351b15a8
:101ad8001b151b151b151b15239802515b90ef7dd9
:101ae800e71c528a5aec5aec4a4a4a6a4a6a4a4af3
:101af8004a4a4a4a4a4a4a494a4a4a4a4a4a4a4a3f
:101b08004a494a494a494a494a494a494a4942295d
:101b1800422942293a0842089cf4ffffffffffffd1
:101b2800defb528a39c74229422942494a494a4971
:101b38004a494a4a4a4a4a4a4a4a4a4a4a494a4900
:101b48004a49424942294229422942294a4a316698
:101b58007bcfffffffffffffffffbdd739e7630c18
:101b68004a6a4a4a4a6a4a6a4a6a4a6a4a6a4a6aed
:101b78004a6a4a6a4a6a4a6a4a6a4a4a4a494a491f
:101b88004a49424939e85acbbdf7f79effffffffa4
:101b9800f7beef7dffdfffffffffe71c7bef39c7d5
:101ba80042294a494a494a494a494a494a494a49bd
:101bb8004a4a4a4a4a4a4a4a4a494a494a49424989
:101bc800424942294a6a528a39c7c638ffffffff8d
:101bd800fffff79e5aec52aa52ab4a6a4a6a4a6a0f
:101be8004a6a4a6a4a6a4a6a4a6a4a6a4a6a4a6a4d
:101bf8004a6a4a6a4a6a4a6a4a4a4209528adefb79
:101c0800ffffffffffff94b33187296631665acb88
:101c1800d6baffffffffffffd69a5b0c39e84a4aa6
:101c28004a494a4a4a494a494a494a494a494a4913
:101c38004a4a4a4a4a4a4a494a494249422952abc7
:101c480029667beff79effffffffffffc639433092
:101c5800441733d81b3623561b361b361b361b56e8
:101c68001b561b361b361b361b361b361b361b36c4
:101c78001b361b3613152355b65ce77edf5edf5e29
:101c8800df5edf5edf3edf3edf3edf3edf3ee75efc
:101c9800e77e6cd913161b361b361b361b361b36d4
:101ca8001b361b361b361b151b151b351b351b1509
:101cb8001b151b151b151b151b7802515b90f77d17
:101cc800e73c528a528a5acb4a4a4a4a4a494a49be
:101cd8004a494a494a494a494a494a494a494a4964
:101ce8004a494a494a494a494a494a494249422984
:101cf8004229422939c75acbe71cffffffffffdf04
:101d08009cd33186422942294229422942494249e3
:101d18004a494a494a494a494a494a494a494a4923
:101d28004249422942294229420942294a49296607
:101d38007bcfffffffffffffffffbdf739c752aba8
:101d48004a6a4a494a4a4a4a4a4a4a4a4a4a4a49cd
:101d58004a4a4a4a4a4a4a6a4a4a4a494a494249c6
:101d680042494a49422939c74a6abdf7ffffffff7e
:101d7800ffffffffffffffffffdf94b331a739e845
:101d88004a494a494a494a494a49424942494249cb
:101d98004a494a494a494a494a49424942494229db
:101da800422942294a494a6a39c7c638ffffffff14
:101db800fffff79e630c4a6a52ab4a6a4a6a4a6a4c
:101dc8004a6a4a6a4a6a4a6a4a6a4a6a4a6a4a6a6b
:101dd8004a6a4a6a4a6a4a4a4a49422939e8ad7609
:101de800fffffffffffff79ead5584109cd3defb7e
:101df800ffffffffffffffffce9a5aec39c74249aa
:101e08004249424942494a494a494a494a494a494a
:101e18004a49424942494249422942294229528b68
:101e280029667beff79effffffffffffc6394310d0
:101e38003bd72bb81b161b361b361b361b361b36df
:101e48001b361b361b361b361b361b361b361b3602
:101e58001b351b1512f52b75df3effffffffffff3c
:101e6800ffffffffffffffffffffffffffffffff7a
:101e7800ffff855a12f513161b361b151b351b154c
:101e88001b151b151b151b151b151b151b151b15ca
:101e98001b151b151b1512f51b78025163b0f77d36
:101ea800e73c528a4a4a52ab4a494a494a494a494e
:101eb8004a494249424942494249424942494249ba
:101ec80042494249424942494249424942294229f2
:101ed800422939e839e89cd3ffffffffffffdefb0b
:101ee8004a8a31a7422942294229422942294229bc
:101ef80042494a4942494a494a494a494249424962
:101f0800422942294229422942084229422929666e
:101f18007bcfffffffffffffffffbdf739c74a6a0f
:101f28004a4942494a494a494a494a494a494a4919
:101f38004a494a494a494a494a494a494249422931
:101f4800422942293a086b6ec618ef7dffffffff52
:101f5800ffffffffffffffffffffef5da5344a6aaa
:101f680042294a494a494249424942294249422961
:101f78004229424942494249424942494229422961
:101f8800422942294a494a4a31a7c638ffffffff7a
:101f9800fffff79e630c4a6a528b4a6a4a6a4a4aaa
:101fa8004a4a4a6a4a6a4a6a4a6a4a6a4a6a4a4ac9
:101fb8004a6a4a4a4a4a4a494249424939e852ab76
:101fc800debbfffffffffffffffff7beffdfffffe7
:101fd800ffffffffffffffffc63952ab31c74229a2
:101fe8004229422942294229424942494249424911
:101ff80042494249422942294229422942084a6a19
:1020080029457bf0f79effffffffffffc6393b1016
:102018002b9623971b151b361b351b151b161b36ba
:102028001b161b161b361b361b351b151b151b15c4
:102038001b151b1512d52b55d71dffffffffffffe3
:10204800ffffffffffffffffffffffffffffffff98
:10205800ffff7d1912d512f51b151b151b151b1536
:102068001b151b151b151b151b151b151af51af52a
:102078001af512f512f512f41b7702515bb0f77dd1
:10208800e73c528a424952ab4a494a494249424985
:1020980042294229422942294229422942294229e0
:1020a80042294229422942294229422942294229d0
:1020b800422939c75aece73dffffffffffdfa514b0
:1020c80029664208420942294229422942294229cd
:1020d80042294229422942294229422942294229a0
:1020e80042294229420942083a08420842292966f7
:1020f8007bcfffffffffffffffffbdf731a74a4977
:10210800422942294229422942494249424942290f
:1021180042294249424942494249422942294229df
:10212800422939e85b0cdefcffffffffffffe73cbd
:102138008410738ebdd7ffdfffffffffffdf9cf327
:10214800422942294229422942294229422942292f
:10215800422942294229422942294229422942291f
:10216800422942084a494a4a39c7c638ffffffff91
:10217800fffff7be630c4249528a4a4a4a4a4a4913
:102188004a494a4a4a4a4a4a4a4a4a4a4a4a4a49a9
:102198004a4a4a494a49424942294229422931a7d9
:1021a8005aecc638ffffffffffffffffffffdefb14
:1021b800ce79ffdfffffffffb5b64a6a31a7422994
:1021c80042294229422942294229422942294229af
:1021d80042294229422942294229420842084a6a98
:1021e800294583eff79effffffffffffce593af027
:1021f8001b5623771b151b151b151b151b151b15ac
:102208001b151b151b151b151b151b151b151b1546
:102218001b151b1512f51af4645684d684d67cd681
:102228007cb67cb67cb67cd67cd67cd67cd684d66e
:1022380084d63b7412f51b151b151af51b151af5d8
:102248001af51b151b151b151af51af512f512f5bb
:1022580012f512f512f512f41b5702305b90f77d58
:10226800e73c528a4228528b424942494229422934
:1022780042294229422942294229422942294229fe
:1022880042294229422942294229422942294229ee
:1022980039e839e8a514ffffffffffffe71c5acb19
:1022a80031a74208420842094209422942294229e3
:1022b80042294229422942294229422942294229be
:1022c800422942084208420839e842084209294698
:1022d8007bcfffffffffffffffffbdf731864229de
:1022e800422942294229422942294229422942298e
:1022f800422942294229422942294229422942297e
:102308003a0839e894b3ffffffffffffef7d6b4dfd
:102318002125294539a79cd3ffdfffffffffe71cd5
:102328005acb39e8422942294229422942294229dd
:10233800422942294229422942294229422942095d
:102348004208420842294a4939c7c638fffffffff9
:10235800fffff7be630c42084a6a4a494a494a499c
:102368004a494a494a494a4942494a494a494a49d5
:102378004a494a49424942294229422942294208ae
:1023880031a742297bf0b596ce59c61894b24a6a4d
:10239800ad76ffffffffffff8c72420839c7422965
:1023a80042294229422942294229422942294229cd
:1023b8004229422942294209420842083a084a6aff
:1023c80029457beff79effffffffffffce5932f055
:1023d800131523771b151b151b151b151b151b1513
:1023e8001b151b151b151b151b151b151b151b1565
:1023f8001b151af51af512f50a930a510a510a51d2
:102408000a510a510a510a510a510a510a510a51ec
:102418000a5112b31af51b151af51af51af51af519
:102428001af51af51b151af51af512f512f512f523
:1024380012f512f512f512d41b5602105b90f77db7
:10244800e73c526a4208528a4229422942294229d3
:10245800422942294229422942294229422942291c
:10246800422942294229422942294209420842086e
:1024780039c7630cef5dfffffffff7be94b3296612
:1024880039e84208420842084208420942294229da
:10249800422942094209420942094229420842089e
:1024a80042084208420839e839e839e83a08294533
:1024b8007bcfffffffffffffffffbdf7318642091c
:1024c80042294229422942294229422942294229ac
:1024d800422942294229422942294229422942299c
:1024e80039e83a08b5b6ffffffffffffce7931a6fe
:1024f800294539a729255acbef7dfffffffff7bef6
:102508006b4d39c74208420942094209420942094a
:1025180042094229422942294229422942094208bc
:102528004208420842294a2931a6c638ffffffff60
:10253800fffff7be630c39e84a4a4a494229424933
:1025480042294229422942294229424942494229eb
:10255800422942294229422942294229420942293b
:1025680039c831a7318639c741e839c721255aeb1f
:10257800e73cfffffffff79e630c39c739e84208c5
:10258800420942294229422942094209420942296b
:10259800422942294209420842083a0839e84a4a87
:1025a80029457beff79effffffffffffce5932cf94
:1025b80012f51b571b151b151b151b1512f51af5c4
:1025c8001af51b151b151b151b151b151b151315ac
:1025d80012f512f512f512f512d412b412b412b49f
:1025e80012b412b412b412d412d412b412b412b473
:1025f80012b412d412f412f512f41af41af51af5e8
:1026080012f51af51af51af512f512f512f512f473
:1026180012f412f412d412d41b3602105b90f77d18
:10262800e73c4a6939e84a6a42294229422942096b
:10263800420942084209420942084209420942093c
:10264800420942094209420842084208420939c877
:102658004208b596ffffffffffffdefb4a493186c0
:1026680039e839e83a08420842084208420842086c
:102678004208420842084208420842084208420802
:102688003a083a0839e839e839e839e839e82125d3
:102698007bcfffffffffffffffffbdf72966420863
:1026a80042294229422942294229422942294229ca
:1026b800422942294209420942094208420842097c
:1026c80039e839e8ad75ffffffffffffef5d5aeb13
:1026d8002945294529458c31f7beffffffffef7dce
:1026e8005aec39c7420842084208420842084208e0
:1026f800420842094209420942094209420842087d
:102708003a083a08422942293186c618ffffffffd6
:10271800fffff7be5aec39c74249422942294229ec
:102728004229422942294229422942294229422949
:10273800422942294229422942294209420842089b
:102748005aec528a39c73186316629665acbd69aed
:10275800ffffffffffffbdd739c731a74208420877
:10276800420842084209420842084208420842090f
:10277800420942094208420839e839e839e84a4931
:1027880021257beff79effffffffffffce7932d0b9
:102798000ad41b361af51af51af512f512f512f5c0
:1027a80012f51af512f512f51af512f512f512f5d9
:1027b80012f512f512f512d412d412d412d412d47e
:1027c8001ad412d41ad41af41af412f412d412d451
:1027d80012d412d412d412d412d412d412f512f57f
:1027e80012f512f512f512f512f512f512f512f4aa
:1027f80012f412d412d412d41b3602305bb0f77d17
:10280800e73c4a6939c74a4a42094208420842082d
:102818004208420842084208420842084208420860
:1028280042084208420842084208420839e831a7eb
:102838006b8ef7beffffffffffdfa514296639e89f
:1028480039e839e839e83a084208420842084208b3
:1028580042084208420842084208420842083a0828
:1028680039e839e839e839e839c839e839e8212553
:102878007bcfffffffffffffffffbdf7296639e8aa
:1028880042294209420942094209422942094209a8
:1028980042094209420842084208420842084208de
:1028a80039e831a77bf0ffffffffffffffffdefbeb
:1028b80094b27bcf9cf4ef7dffffffffffffbdd7f6
:1028c80039e839c742084208420842084208420823
:1028d8003a084208420842084208420842083a08b0
:1028e80039e839e8420842083186c638ffffffff59
:1028f800fffff7be5aeb31a7422942294229422954
:102908004229422942294229422942294229422967
:1029180042294229420942094209420839e839e86c
:10292800b5b7defbad758c7184109cd3e71cffff37
:10293800fffffffff79e630c296639c83a083a087b
:10294800420842084208420842084208420842082f
:10295800420842083a0839e839e839e839e84229aa
:1029680021257beff79effffffffffffce7932d0d7
:102978000ab41b361af51af51af512f512f512f5fe
:1029880012f512f512f512f512f512f512f512f507
:1029980012d512f512f512d412d412d412d412d4bc
:1029a80012d412d412d412d412d412d412d412d4ef
:1029b80012d412d412d412d412d412d412d412d4df
:1029c80012d412f512f512f512f512f512f512d409
:1029d80012d412d412d412d41b3602105b90f77d95
:1029e800e73c4a6931a7424942084208420842087e
:1029f800420839e839e83a083a083a083a0839e81a
:102a080039e839e83a083a0839e839e831a7422973
:102a1800bdf8ffffffffffffe71c528a318639e848
:102a280039e839e839e839e839e83a083a083a0833
:102a38003a083a08420839e839e83a0839e839e8fa
:102a480039e839e839e839e839c739e839c8212592
:102a58007bcfffffffffffffffffbdf7296539c8e9
:102a6800420842084208420842084208420842080e
:102a7800420842084208420842083a084208420806
:102a8800420839c74208b5b6ffffffffffffffff47
:102a9800ffdff7beffffffffffffffffdefc5aec83
:102aa80031a739e839e839e839e839e839e83a083e
:102ab80039e83a0842084208420842083a0839e820
:102ac80039e839e8420842083186c638ffffffff77
:102ad800fffff79e5acb31a74229420942094229f2
:102ae8004229422942294209420942094209420926
:102af80042084208420842084208420839e839c8f0
:102b0800c639ffffffffffdff7bfffdfffffffff54
:102b1800fffff7be8430296631a739e839e839e87c
:102b28003a0842083a0839e83a083a083a083a08a6
:102b38003a0839e839e839e839e839e839c742293b
:102b480021247bcff79effffffffffffce7932cf17
:102b58000ab41b3612d41af41af512f412f412f449
:102b680012f412f412f512f512f512f512f512f428
:102b780012d412d412d412d412d412d412d412d41d
:102b880012d412d412d412d412d412d412d412d40d
:102b980012d412d412d412d412d412d412d412d4fd
:102ba80012d412d412d412d412f412f412d412d4ad
:102bb80012d412d412d412d41b3602105b90f77db3
:102bc800e73c4a6931a7422939e839e839e839e860
:102bd80039e839e839e839e839e839e839e839e8e5
:102be80039e839e839e839e839e839c731875aec3a
:102bf800ef5df7bef7beef7d9492294539c739e8f6
:102c080039e839e839e839e839e839e839e839e8b4
:102c180039e839e839e839e839e839e839e839e8a4
:102c280039e839e839e839c839c739e839c82925c8
:102c38007bcfffffffffffffffffbdf7294539c728
:102c480042083a08420842083a083a083a083a0854
:102c580042083a083a083a0839e839e839e839e8d8
:102c680039e839e83186422894b3e71cffdfffffd3
:102c7800fffffffffffffffff7bebdd75acb31862f
:102c880039e839e839e839e839e839e839e839e834
:102c980039e839e839e839e839e839e839e839e824
:102ca80039e839e8420839e83186c638ffffffffbe
:102cb800fffff79e5acb31a7420942094209420950
:102cc80042094209420942094208420842084208a8
:102cd8003a083a083a083a0839e83a0839c831c788
:102ce800b5b7ffdfffffffffffffffffffffffdfbe
:102cf800d69a738e318631a739e839e839e839e848
:102d080039e839e839e839e839e839e839e839e8b3
:102d180039e839e839e839e839e839c839c74209ba
:102d280021047bcff79effffffffffffce5932cf75
:102d38000ab41b1612d412d412f412d412d412d418
:102d480012d412d412f412f412f412d412d412d4eb
:102d580012d412d412d412d412d412d412d412d43b
:102d680012d412d412d412d412d412d412d412d42b
:102d780012d412d412d412d412d412d412d412d41b
:102d880012d412d412d412d412d412d412d412d40b
:102d980012d412d412d412b41b3602105bb0f77dd1
:102da800e73c4a6a3186422939e839e839e839e89e
:102db80039e839e839e839e839e839e839e839e803
:102dc80039e839e839e839e839e839e839c74208eb
:102dd800630c630c630c5aeb39c731a739c739c781
:102de80039c839c839e839e839e839e839e839e813
:102df80039e839e839e839e839e839c839c839c823
:102e080039e839c839c739c739c739e839c8212530
:102e18007bcfffffffffffffffffbdd7294539c766
:102e28003a083a0839e839e839e839e839e839e850
:102e380039e839e839e839e839e839e839e839e882
:102e480039e839e839c731862966528a8430ad7540
:102e5800c618c638bdf79cf3632d31a7296639c754
:102e680039e839e839e839e839e839e839e839e852
:102e780039e839e839e839e839e839e839e839e842
:102e880039e839c839e839c83186c638ffffffff45
:102e9800fffff79e5acb3186420842084208420893
:102ea800420842084208420842083a083a0839e803
:102eb80039e839e839e839e839e839e839e831a74b
:102ec8004a698410b596ce59ce59c618ad557befd0
:102ed8004208294531a739e839e839e839e839e8b5
:102ee80039e839e839e839e839e839e839e839e8d2
:102ef80039e839e839e839c839c739c739c742091b
:102f080021047bcff79effffffffffffce7932d072
:102f180002b41b1612d412d412d412d412d412d45e
:102f280012d412d412d412d412d412d412d412d469
:102f380012d412d412d412d412d412d412d412d459
:102f480012d412d412d412d412d412d412d412d449
:102f580012d412d412d412d412d412d412d412d439
:102f680012d412d412d412d412d412d412d412d429
:102f780012d412d412d412d4131602105bb0f77df7
:102f8800e73c4a693186422939e839e839e839e8bd
:102f980039e839e839e839e839c839e839e839c861
:102fa80039c739c839e839c739c739c739c731a71f
:102fb8002966294529452945318639c739c739c779
:102fc80039c739c739c739c739c739c739e839c8d7
:102fd80039c739c739c739c739c739c739c739c7e9
:102fe80039c739c739c739c731a739c739c72104dc
:102ff80073aeffffffffffffffffbdd7212531a7fe
:1030080039e839e839e839e839e839e839e839e8b0
:1030180039e839e839e839e839e839e839e839e8a0
:1030280039c839c739c739c731a729662945296633
:10303800318631a731a62966296531a739c739c82c
:1030480039c839c739c739c839c739c739c839c874
:1030580039c739c739c839c839c739c839c839c863
:1030680039c839c739e831a72965c638ffffffffd6
:10307800fffff79e5acb31664208420842084208d1
:103088003a083a083a0839e839e839e839e839e8cd
:1030980039e839e839e839e839e839e839e839e820
:1030a80031862945296639c739c731a7296629458f
:1030b800318631a739c839c839c839e839e839e813
:1030c80039e839e839e839e839e839e839e839e8f0
:1030d80039e839c839c739c739c739c731c7420884
:1030e80021047beff79effffffffffffce7932d071
:1030f8000294131512d412d412d412d412d412d4a6
:1031080012d412d412d412d412b412b412b412b407
:1031180012b412b412b412b412b412b412b412b477
:1031280012d412d412d412d412d412d412b412b4a7
:1031380012b412b412b412b412b412b412b412b457
:1031480012b412b412d412d412d412d412d412b4a7
:1031580012b412b412b412b4131602105b90f77db5
:10316800ef5d4a4921254a4939e839e839e839c83b
:1031780039c739c739c739c739c739c739c739c747
:1031880039c739c739c739c739c739c739c731c73f
:1031980031a731a731a731a731a739c731a731a73f
:1031a80039c739c739c739c739c739c739c739c717
:1031b80039c739c739c739c739c739c739c739c707
:1031c80031c731a731a731a731c739e8318710a2f4
:1031d8007bcfffffffffffffffffbdd720e4318656
:1031e800420939e839e839e839e839e839e839c8c5
:1031f80039e839c839c839c839e839c839c839c87f
:1032080039c739c739c739c739c739c731a731a706
:1032180031a631a731a739c739c739e839e839c8dc
:1032280039c839c739c739c739c739c739c739c795
:1032380039c739c739c739c739c739c739c739c786
:1032480039c739c7420829652945c638ffffffff36
:10325800fffff79e5acb2125420842083a083a0850
:103268003a0839e839e839e839e839e839e839e82d
:1032780039e839e839e839c839c839e839c839c7bf
:1032880039c731a731a7318631a731a731a731c74f
:1032980039c739c839c839c739c739c839c839c821
:1032a80039c839e839c839e839e839e839c839c88e
:1032b80039c839c739c739c739c731c739c739e8ec
:1032c80018a37beff79effffffffffffce592a8e63
:1032d8000273131612d412d412b412b412b412b464
:1032e80012d412d412d412b412b412b312b412b348
:1032f80012b312b412b412b412b412b412b412b497
:1033080012b412b412b412b412b412b412b412b485
:1033180012b412b412b412b412b412b412b412b475
:1033280012b412b412b412b412b412b412b412b465
:1033380012b412b412b412d4131601ce5b8ff79dd7
:10334800f79e630c084131a7420942084208420827
:103358004208420842084208420842084208420815
:10336800420842084208420842084208420839e82e
:10337800420841e839e839e839e839e839e839e80c
:1033880039e839e841e8420841e839e842084208a2
:1033980042084208420841e839e8420839e839e871
:1033a80039e839e839e839e839e839c718c3108203
:1033b8009cf3ffffffffffffffffce79294518c3ee
:1033c80039e8422942294229422942294229420808
:1033d8004208420842084208420942084208420894
:1033e8004208420842084208420842084208420885
:1033f8004208422942094208422942084208420832
:103408004208420842084208420842084208420864
:10341800420842084208420841e842084208420875
:1034280039e839e831a7108239c7d6baffffffff5c
:10343800ffffffff73ae108231664208422942291e
:10344800422942294229422942294229422942291c
:103458004209420942084208420942084208420811
:103468004208420842084209420942084209420801
:1034780042084208420842084208420842084208f4
:1034880042084209420842094208420842084208e2
:103498004208420842084208420839e839e8292522
:1034a800086294b2ffdfffffffffffffdeda328d15
:1034b80001ce12f513161336133613571357135735
:1034c8001357135713571357133713361336133627
:1034d800133613361336133613361336135713367b
:1034e800133613561357135713361336133613362a
:1034f800133613361336133613361336133613367c
:10350800133613361336133613361336133613366b
:1035180013361316131613160a93014b7432ffdf72
:10352800ffffad5518e30862210421252125212537
:10353800212521252125292521252125212521254b
:103548002125212521252125212521252125212543
:103558002125212521242124212421242124212538
:103568002125212421252125212521252125212524
:103578002124212521252124212421242124212419
:103588002125212521242124212418c3084142086a
:10359800d6baffffffffffffffffef7d6b4d08412e
:1035a80010a3212529452945294529452945294586
:1035b80029252925212521252925292529252925a3
:1035c80021252125212521252125212521252125c3
:1035d800212529452945292529252925212521254b
:1035e8002125212521252125292529252945294543
:1035f800212521252125212521252125292521258b
:103608002125210410a208617befef7dffffffff5a
:10361800ffffffffb59621041082210429452945a3
:103628002945294529452945292529452945294542
:1036380029452945212521252945294529252925a2
:1036480021252125212529452945292529252925da
:103658002125212521252125212521252125212532
:1036680029252945292521252925212521252125e2
:1036780021252125212529252125212518e3084152
:103688002965c618fffffffffffffffff7be73f1b5
:10369800014a01cf0a720a930ab30ab30ab40ab4f8
:1036a8000ab30ab30ab30ab30ab30ab30ab30ab32a
:1036b8000ab30ab30a930ab30ab30a930a930ab37a
:1036c8000ab30a930ab30ab30ab30a930ab30a926b
:1036d8000a920a920a930a930a930a920a920a93fe
:1036e8000ab30a920a920a920a920a920ab30ab38f
:1036f8000a930a920a720a30014c21ebb5d7fffff0
:10370800ffffe73c8c5121240861086108610861ca
:1037180008610861086108610861084108410841b9
:1037280008410841084108410841086108610861e9
:103738000861086108610861086108610861086139
:103748000861086108610861086108610861086129
:103758000861086108610841084108410861086179
:1037680008610861086108610861108239e7ad5590
:10377800f79efffffffffffffffff7bece5952aadc
:1037880018c3086108610861086108610861086177
:1037980008610861086108410861086108610861f9
:1037a80008610861086108610861086108610861c9
:1037b80008610861086108610861086108610861b9
:1037c80008610861086108610861086108610861a9
:1037d8000861086108610861086108610861086199
:1037e8000861086210c35acbce79f7beffffffff0e
:1037f800ffffffdfef5d84302124108210821082ea
:10380800108208820861086108610861086108611e
:103818000861086108610861086108610861086158
:103828000861086108610861086108610861086148
:103838000861086108610861086108610861086138
:103848000861086108610861086108610861086128
:103858000861084108410861086108610862294552
:103868009492e73dffffffffffffffffffdfd69ac0
:103878005b6f0969014a016a014a016a016a016bc1
:10388800016a016a016a016a016a016a016a014af8
:10389800016a014a014a014a014a014a014a014aa8
:1038a800014a014a014a014a014a014a014a014ab8
:1038b800014a014a014a014a014a014a014a014aa8
:1038c800014a014a014a014a014a014a014a014a98
:1038d800014a014a014a014a19eb8c93ef3cffff68
:1038e800fffff7bedefba5346b4d5acb5acb5aeb24
:1038f8005aeb5aeb5aeb5aeb5aeb5aeb5aeb5aeb98
:103908005aeb5aeb5aeb5aeb5aeb5aeb5aeb5aeb87
:103918005aeb630b630b630b5aeb5aeb5aeb5b0bdb
:10392800630b5b0b630c630c630c630c630c630b22
:103938005aeb5aeb5aeb5aeb5aeb5aeb630c630c03
:103948005b0b630c630c630c632c7befbdd7e73c0c
:10395800f79effffffffffffffffffdfef7dce7941
:103968009492632c5aeb630b630c630c5aeb5aeb7f
:103978005aeb5aeb630b5aeb5aeb5aeb5aeb630bc5
:103988005aeb5aeb5aeb62eb630c630c5aeb630c81
:10399800630c630c630c630c630c630c630c630ca7
:1039a800630c630c630c630c630c630c630c630c97
:1039b800630c630c630c630c630c630c630c630c87
:1039c8005aeb6b4d9492ce59ef5dffdfffffffff7f
:1039d800fffffffff79ededba514738e5aeb630b28
:1039e800630c630c5b0b630c630c630c630c630c60
:1039f800630c630c5aeb5aeb5aeb5aeb5aeb5aeb43
:103a08005aeb5aeb5aeb5aeb5aeb5aeb5aeb5aeb86
:103a18005aeb5aeb5aeb5aeb5aeb5aeb5aeb5aeb76
:103a2800630c630c630c630c5aeb5aeb5aeb5aebbe
:103a38005aeb5aeb5aeb5acb5acb5aeb73aead75dd
:103a4800dedbf79effffffffffffffffffdfef7dde
:103a5800ce798c72632d5aec5aec5aec5b0c5aec0a
:103a68005aeb5aec5aec5aec5b0c5b0c5aec5aecdd
:103a78005b0c5b0c5b0c5b0c5b0c5aec5aec5b0c48
:103a88005aec5aec5aec5b0c5aec5aec5b0c5b0c9b
:103a98005b0c5b0c5aec5aeb5aec5b0c5b0c5b0c4a
:103aa8005b0c5b0c5b0c5b0c5b0c5b0c5b0c5b0cd6
:103ab8005b0c5aec5b2d7bf0ad76dedbf79effffef
:103ac800ffffffdff79ee73cd6bace79ce59ce7915
:103ad800ce79d679ce79ce79d69ad679ce79ce796d
:103ae800ce79ce79d679d69ad69ad69ad69ad679e2
:103af800d679d69ad69ad69ad69ad69ad69ad69a5f
:103b0800d69ad69ad69ad69ad6bad69ad69ad69a0d
:103b1800d69ad69ad69ad69ad69ad6bad6bad6babd
:103b2800d69ad69ad6bad6bad6badefbef5df7be23
:103b3800fffffffffffffffffffffffff7beef7d68
:103b4800e6fbd69ace79ce79ce79ce79d69ad69a20
:103b5800d69ad69ad69ad69ad69ad69ad69ad69add
:103b6800d69ad69ad69ad69ad69ad69ad69ad69acd
:103b7800d69ad69ad69ad69ad69ad69ad69ad69abd
:103b8800d69ad69ad69ad69ad69ad69ad69ad69aad
:103b9800d69ad69ad69ad69ad69ad69ad69ad69a9d
:103ba800d69ad6bae71cef7dffdfffffffffffffc6
:103bb800ffffffffffdfef7de71cd6bace79ce7996
:103bc800ce79d67ad69ad69ad69ad6bad6bad6ba56
:103bd800d69ad69ad69ad69ad69ad679d69ad69a7e
:103be800d69ad69ad69ace79ce79d69ad69ad69a9f
:103bf800d679d679d69ad69ad69ad69ad69ad69a7f
:103c0800d69ad69ad6bad69ad69ad69ad69ad6792d
:103c1800d67ad69ad69ad69ace79d69adefbe73c49
:103c2800f79effdfffffffffffffffffffffffdf45
:103c3800ef5ddefbd699ce58ce38ce58ce58ce386a
:103c4800ce38ce38ce38ce38ce58ce58ce38ce38fc
:103c5800ce59ce59ce58ce59ce59ce58ce59ce5926
:103c6800ce59ce59ce59ce59ce59ce59ce59ce5914
:103c7800ce59ce58ce58ce58ce59ce59ce59ce5907
:103c8800ce59ce59ce59ce79ce79ce59ce59ce59b4
:103c9800ce59ce59d699dedbe73cf79effdfffff12
:103ca800ffffffffffffffdff7bef79ef77df79ee1
:103cb800f79ef79ef79ef79ef79ef79ef79ef79e54
:103cc800f79ef79ef79ef79ef79ef79ef79ef79e44
:103cd800f79ef79ef79ef79ef79ef79ef79ef79e34
:103ce800f79ef79ef79ef79ef79ef79ef79ef79e24
:103cf800f79ef79ef79ef79ef79ef79ef79ef79e14
:103d0800f79ef79ef79ef79ef79ef7beffdfffff31
:103d1800ffffffffffffffffffffffffffffffdfcb
:103d2800f7bef79eef7def7df79ef79ef79ef79e15
:103d3800f79ef79ef79ef79ef79ef79ef79ef79ed3
:103d4800f79ef79ef79ef79ef79ef79ef79ef79ec3
:103d5800f79ef79ef79ef79ef79ef79ef79ef79eb3
:103d6800f79ef79ef79ef79ef79ef79ef79ef79ea3
:103d7800f79ef79ef79ef79ef79ef79ef79ef79e93
:103d8800f79ef7bef7beffdfffffffffffffffff56
:103d9800ffffffffffffffdff7bef79ef79ef79ecf
:103da800f79ef79ef79ef79ef79ef79ef79ef79e63
:103db800f79ef79ef79ef79ef79ef79ef79ef79e53
:103dc800f79ef79ef79ef79ef79ef79ef79ef79e43
:103dd800f79ef79ef79ef79ef79ef79ef79ef79e33
:103de800f79ef79ef79ef79ef79ef79ef79ef79e23
:103df800f79ef79ef79ef79ef79ef79ef7beffdfaa
:103e0800ffffffffffffffffffffffffffffffffba
:103e1800ffdff7bef79eef7def7def7def7def7d56
:103e2800ef7def7def7def7def7def7def7def7d2a
:103e3800ef7def9def9ef79ef79eef9def7df79d3f
:103e4800f79df79df79ef79def7def7def7def7d69
:103e5800ef7def7def7def7def7df77df79ef79da1
:103e6800f79df79df79df79df79eef7def7def7d21
:103e7800ef7def7df79ef7beffdfffffffffffff40
:103e8800ffffffffffffffffffffffffffffffff3a
:103e9800ffffffffffffffffffffffffffffffff2a
:103ea800ffffffffffffffffffffffffffffffff1a
:103eb800ffffffffffffffffffffffffffffffff0a
:10424800fffffffff7beb5968c5184308c51843048
:104258008430843084308431843084308c518c5163
:1042680084308430843084308430843084308430a6
:104278008430843084308430843084308430843096
:104288008430843084108410841084108430841026
:104298008410841084108410841084108410841076
:1042a800843084107bef84108430ad55ef5dffffc0
:1042b800ffffffffffffffffffffffffffffef7d98
:1042c800ad768c51843084308430843084308410ce
:1042d80084308410841084308430841084108430b6
:1042e8008430843084308430841084308430843046
:1042f8008430843084308410843084308430843036
:1043080084318430841084108410841084108430a4
:104318008410841084308430841084308431843054
:1043280084308c71bdf7ffdfffffffffffffffff4a
:10433800ffffffffffffffffce5994b28c518c5156
:104348008c5184308431843084308430843084309b
:1043580084308430843084108410843084308430f5
:1043680084308430841084308430841084308430e5
:104378008430843084308430843084308430843095
:104388008410841084108410843084308430841025
:104398008430843084318c318c318c31a514e73ce5
:1043a800ffffffffffffffffffffffffffffffff15
:1043b800f79ead977c5374537c747c747c737c94a7
:1043c8007c947c737c737c737c737c737c737c734c
:1043d800745374537c737c7374737c737c737c53d5
:1043e80074737c73745374537c737c737c737c73a5
:1043f8007c737c737c737c737c5374527c537c53c6
:10440800745274527c537c737c737c53745374530e
:1044180074537c737c7394f5dedbffffffffffffb3
:10442800ffffef5d841052aa738e73af73af73af43
:1044380073ae73af73af7bcf7bcf7bcf7bcf7bcf9d
:104448007bcf7baf7baf7baf73ae738e738e738e78
:104458006b6e6b4d6b4d6b2d632c632c630c5aeca0
:104468005aec5acc5aab52ab52ab52ab528a528a24
:10447800528a528a528a528a528a526a526a526ab4
:10448800526a4a6a4a6a4a49422939e85aebce5975
:10449800ffffffffffffffffffffffffe71c738e1c
:1044a8006b4d738e738e73ae738e738e738e738e25
:1044b800738e738e738e736e6b6d6b6d6b4d6b4df0
:1044c8006b6d6b6d632d630c630c630c630c630c79
:1044d800630c5aec5aec5aeb5acb5acb5acb5acb00
:1044e8005aab5aab52ab52ab52ab52ab52ab528aed
:1044f80052ab52ab528a528a528a528a526a528ab2
:10450800528a422939e88430f79efffffffffffff8
:10451800ffffffffffffa514632c7baf7bcf73afbb
:104528007bcf7bcf7bcf7bcf7baf73af73af73aecc
:1045380073ae738e738e738e738e738e736e6b6e93
:104548006b4d6b4d6b2d632d632d632d630c630ccd
:10455800630c62ec5acb5acb5acc5acb5acb5acbb7
:104568005acb52ab5aab52ab52ab52ab52ab52ab2b
:10457800528a528a528a526a526a4a6a39e8526a96
:10458800c638ffffffffffffffffffffffffef5de5
:104598006c3243725c7764975c765c76647664769a
:1045a800647664765c765c565c765c565c565456eb
:1045b8005c565c56545654565456543654365436f3
:1045c80054364c364c364c164bf643f543f643f608
:1045d80043f543f643d63bd53bd53bd53bb53bb539
:1045e8003bb53bb53bd53bd633b533952b742b75d3
:1045f800235423341b141ab22aafadb7ffffffffb1
:10460800ffdf9cf4528a84316b4d630d630d630c9c
:10461800630c630c630c630c630d630c5aec5aec6b
:104628005aec5aec5aec630c62ec5aec62ec5b0cf8
:104638005aec5aec5aec5aec5acb5acc5acc5acbc4
:104648005acb5acb5acb5aab5acb5aab52ab52abca
:1046580052ab52ab52ab52ab52ab528b52ab528baa
:10466800528b528b52ab528a528a4a4a31a7528a8b
:10467800e73cfffffffffffffffff7be7bf06b4d3f
:104688007bf0632d5aec630c5aec5aec630c630c08
:104698005aec5aec5aec5aec5aec5aec5aec5aece2
:1046a8005aec5aec5aec5acc5acc5acb5acb5acb75
:1046b8005acb5acb5acb5acb5acb5acb5acb5acbca
:1046c80052ab5acb5acb52ab52ab5aab52ab52aba2
:1046d80052ab52ab52ab52ab52ab52ab52ab52abea
:1046e80052ab52ab4a4931869cf3ffdfffffffff15
:1046f800ffffffffbdd75aeb8430738e630c5aec73
:10470800630c630c630c630c630c630c62ec630c4a
:104718005aec5aec5aec62ec5aec5aec5aec5aec59
:104728005aec5aec5aec5acc5aec5aec5acb5acbb3
:104738005acc5acc5acb5acb5acc5acb5acb5acb46
:104748005acb52cb5acb5aab52ab52ab52ab52ab01
:1047580052ab52ab52ab528b528b52ab528a39a7e7
:1047680052abdefbffffffffffffffffffff84d51c
:1047780043b354b9443933d733d833d733d833d77d
:1047880033d733d733d733d733d833d733b733d7f0
:1047980033d833d833d733d733d733d733d733d8be
:1047a80033d72bd733d733d72bb72bb72bb82bb758
:1047b8002bb72bb72bb72bb72bb72bb82bb72b9700
:1047c8002bb72bb82bb72bb82b9723972397239767
:1047d80023772376237623770ab42ad0c659ffff96
:1047e800ef5d6b4d73ae7bf052ab52cb52ab52ab1d
:1047f80052ab52ab52ab52ab52ab52ab52ab528be9
:10480800528b528b528b52ab52ab52ab52ab52ab18
:1048180052ab52ab52ab52ab528a4a6a4a6a4a6aa4
:104828004a6a528b52ab52ab52ab52ab52ab52ab01
:1048380052ab52ab52ab528b528b528b528b528b28
:10484800528b528b528b528a528a52aa422929661b
:10485800a514ffffffffffffffffdedb52aa841056
:104868005b0c528b52ab52ab52ab52ab52ab52ab0e
:10487800528b528b528b52ab52ab52ab52ab52aba8
:1048880052ab52ab52ab52ab528a4a6a4a6a4a6a34
:104898004a6a528a528a4a6a528a528a528a52ab5f
:1048a80052ab52ab52ab52ab52ab52ab52ab52ab18
:1048b80052ab52ab52ab52ab52ab52ab52ab52ab08
:1048c80052ab52ab5acb39c84a49e73cffffffff0e
:1048d800ffffffff73ae632d738e52ab528b52ab4b
:1048e80052ab52ab52ab52ab52ab52ab52ab52abd8
:1048f80052ab52ab52ab52ab52ab52ab52ab52abc8
:1049080052ab52ab52ab52ab528a4a6a4a4a4a49f4
:104918004a4a4a6a528a52ab52ab52ab52ab52ab7a
:1049280052ab52ab52ab52ab52ab52ab52ab52ab97
:1049380052ab52ab52ab528b528b528a52ab528b08
:104948002946a535ffffffffffffffffe71c5bd2ee
:104958005cb8447a1b56237723772377237723770a
:10496800237723772377237723772377237723776f
:104978002377237723762376237623762376237665
:104988002376237623762377237723972397237712
:10499800237723772377237723772377237723773f
:1049a8002377237723772377237723772376237631
:1049b80023762356235623762398020f7c52ffde54
:1049c800e71c630c84106b8e528b52ab52ab52ab0c
:1049d80052ab52ab52ab52ab52ab52ab52ab52abe7
:1049e80052ab52ab52ab52ab52ab52ab52ab52abd7
:1049f80052ab52ab52ab528a5acb632d632d6b4ddf
:104a0800632d52ab52ab52ab52ab52ab52ab52ab23
:104a180052ab52ab52ab528b528b528b528a528a48
:104a2800528a528a528a528a4a6a528a4a6a318712
:104a38008430ffffffffffffffffce59528a7bd074
:104a4800528b528b52ab52ab52ab52ab52ab52abb6
:104a580052ab52ab52ab52ab52ab52ab52ab52ab66
:104a680052ab52ab52ab52ab5aec630c630c630cb7
:104a7800630c630c630c630c632d632d5aec528b2f
:104a880052ab52ab52ab52ab528b528b52ab52ab76
:104a980052ab52ab52ab52ab528b528b528b528aa7
:104aa800528b528b52ab4a4a31a7d6baffffffff4f
:104ab800ffffffdf632c6b6e632d528b52ab52ab43
:104ac80052ab52ab52ab52ab52ab52ab52ab52abf6
:104ad80052ab52ab52ab52ab52ab52ab52ab52abe6
:104ae80052ab52ab4a6a4a6a5acc738e84318c51a3
:104af8008411738e5b0c52ab52ab52ab52ab52abc0
:104b080052ab52ab52ab52ab52ab52ab52ab52abb5
:104b180052ab528b528b528b528a528a528a5acb40
:104b280029668c71f7beffffffffffffce9a53d2b5
:104b380064d93c191b362397237723772377237768
:104b4800237723772377237723772377237723778d
:104b58002376237623762376237623762376237685
:104b680023761b561b361b361b5623772397237732
:104b7800237723772377237723772377237723775d
:104b88002377237723772376237623762376235672
:104b9800235623562356235623b8025163b1f79d53
:104ba800e71c630c7bef6b8e528a52ab52ab52ab55
:104bb80052ab52ab52ab52ab52ab52ab52ab52ab05
:104bc80052ab52ab52ab52ab52ab52ab52ab52abf5
:104bd80052ab52ab4a6a52cbb5b6ef3de73cef7ddc
:104be800df1c8c51422952ab52ab52ab52ab528ba9
:104bf800528b528b528b528b528a528a528a528ac9
:104c0800528a4a8a4a6a4a6a4a6a4a6a4a6a31a790
:104c18008410ffffffffffffffffc6184a6a73af4c
:104c280052ab528a52ab52ab52ab52ab52ab52abb5
:104c380052ab52ab52ab52ab52ab52ab52ab52ab84
:104c480052ab528b4a6a632dce59e71ce71ce71c0e
:104c5800e71ce71ce71ce71ce71ce73cad764a6a43
:104c68004a8a52ab528b528b528b528b528b528b3d
:104c7800528b528b528b528b528b528a528a528a47
:104c8800528a528a52ab4a6a39a7ce79ffffffff90
:104c9800fffff7be630c6b6d632d52ab52ab52ab8b
:104ca80052ab52ab52ab52ab52ab52ab52ab52ab14
:104cb80052ab52ab52ab52ab52ab52ab52ab52ab04
:104cc80052ab4a4a5acb9cd3d6baef7df79ef7be71
:104cd800f79eef7ddefb8c514a6a528a52ab528bab
:104ce800528b528b528b528b528b528b528b528bd4
:104cf800528b528b528a528a4a8a4a8a4a6a52abe1
:104d080029668c51f7beffffffffffffc65953d23c
:104d180064d93c191b562397237723772377237766
:104d280023762377237723772377237723772376ad
:104d380023762376237623762376237623562356e3
:104d4800235633d74418441833d723772377237748
:104d5800237723772377237723772377237723777b
:104d680023562356237623762376237623762356d3
:104d78002356235623561b5623b8027163d1f79d39
:104d8800e71c5aeb7bef6b6e528a52ab52ab52abbd
:104d980052ab52ab52ab52ab52ab52ab52ab52ab23
:104da800528b52ab52ab52ab52ab52ab52ab52ab33
:104db80052ab4a6a4a4994b2ffdfffffffffffff89
:104dc800ffdf94b339e8528a528a528b528a528a48
:104dd800528a528b528b528a528a528a4a8a4a8af9
:104de8004a8a4a6a4a6a4a6a4a6a4a6a4a6a3187f7
:104df8007befffffffffffffffffbdf74a6973afc0
:104e0800528b4a8a528b528b52ab52ab528b528b7b
:104e1800528b528b528b528b528b52ab52ab52ab42
:104e2800528b528b4a4a738ef7beffffffffffff7c
:104e3800ffffffffffffffffffffffffc6384a4ae4
:104e48004a6a528b528a528a4a8a528a528b528ba7
:104e5800528a528a528a528a528a528a4a8a4a8a7a
:104e6800528a528a52ab528a39c7ce59ffffffff86
:104e7800fffff79e5aec6b4d632d52ab528b528b52
:104e8800528b52ab52ab52ab52ab52ab52ab52ab52
:104e980052ab52ab52ab52ab528b528b52ab52ab62
:104ea8004a49632dc639f7beffffffffffffffff2b
:104eb800ffffffffffff9cf44a494a6a52ab528a40
:104ec800528b528b528a528b528b528b528b528bf3
:104ed800528a528a4a8a4a8a4a8a4a6a4a6a52ab31
:104ee80031868430f7beffffffffffffc63953b19d
:104ef8005cd93c191b56239723772377237723778d
:104f080023772377237623762376237723772377cc
:104f180023762376237623762356235623561b3669
:104f28002376a63cef9fef9fae5c33d713362397cb
:104f380023772376237723772376237623562356de
:104f48002356235623562356237623762356235651
:104f58002356235623561b5623b8025163b0f77db8
:104f6800e71c5acb73af6b6e4a8a52ab528b52ab6b
:104f780052ab52ab52ab52ab52ab52ab52ab528b61
:104f8800528b528b528b528b528b528b528b52ab11
:104f9800528b4a49738ee75dffffffffffffffff5c
:104fa800f7be949239e8528a4a8a4a8a4a8a4a8ad1
:104fb8004a8a528a528a528a528a4a8a4a6a4a6a69
:104fc8004a6a4a6a4a6a4a6a4a4a4a6a4a6a318755
:104fd8007befffffffffffffffffbdf74a49738e1f
:104fe800528a4a6a528a528a528a528b528b528bfe
:104ff800528b528b528b528b528b528a528a528bc3
:10500800528a4a6a4a497bcfffbeffffffffffff74
:10501800ffffffffffffffffffffffffbdf74a494d
:105028004a4a528a4a8a4a6a4a6a4a6a4a8a528a68
:105038004a6a4a6a4a8a4a8a4a8a4a8a4a8a4a8a08
:105048004a6a4a6a52ab528b39c7ce59fffffffff3
:10505800fffff79e5aeb632c630c528b528b528bdb
:10506800528b528b52ab52ab52ab52ab52ab528bb0
:10507800528b528b528b528b528b528a528b4a498b
:105088005b0cd67affffffffffffffffe71cce791f
:10509800d6baf79effff8c9242294a4a528a4a8a18
:1050a8004a8a528a528a528a528a528a528a528a20
:1050b800528a4a8a4a6a4a6a4a6a4a6a4a6a52abb7
:1050c80029668430f79effffffffffffc639539123
:1050d8005cb83c191b5623772377237723762377ed
:1050e80023772376237623762376237623762376ef
:1050f8002376237623762376235623562376133670
:105108002376c6bdffffffffcebc33b61336239709
:1051180023772377237623762376235623561b5625
:105128001b561b561b5623562356235623562356c7
:105138001b561b561b561b3623b802715bb0f77df6
:10514800e71c5acb738e634d4a8a528b528a528a15
:10515800528a528b528b528b528b528b528b528a61
:10516800528a528a528a528a528a528a528a528b56
:105178004a4a5accce59ffffffffffffffffffff50
:10518800f7be949239e84a6a4a6a4a6a4a6a4a6a97
:105198004a8a4a8a4a8a4a8a4a6a4a6a4a6a4a6ae7
:1051a8004a6a4a6a4a6a4a4a4a494a6a4a6a31a774
:1051b8007befffffffffffffffffbdf74a496b6e65
:1051c8004a8a4a6a4a8a528a528a528a528a528a2f
:1051d800528b528a528a528a528a528a4a8a528aee
:1051e8004a8a4a6a42298410ffffffffffffce79ef
:1051f800843184108431843184318c516b6e4a4af5
:105208004a6a4a6a4a6a4a6a4a6a4a6a4a6a4a6af6
:105218004a6a4a6a4a6a4a6a4a6a4a6a4a6a4a6ae6
:105228004a6a4a6a528a528b39c7c638ffffffff5b
:10523800fffff79e630c632c630c528a4a8a4a8ae2
:10524800528a528a528b528b528b528b528b528a71
:10525800528a528b528b528b528a528a4a6a4a4ad3
:10526800b5b7ffffffffffffdefc84104a49420885
:105278004a49632d8c72632d4a4a4a6a4a6a4a6ac5
:105288004a6a4a6a4a8a528a4a8a528a4a8a4a8aa6
:105298004a6a4a6a4a6a4a6a4a6a4a6a4a4a52ab3d
:1052a80029668410f79effffffffffffc639539161
:1052b8005c9833f81b362376237623762376237679
:1052c800237623762376237623762376237623760e
:1052d800235623562356235623562356235613362e
:1052e8002355be7cffffffffc69c339613362397da
:1052f80023772376237623762376235623561b5645
:105308001b561b561b561b561b561b5623562356fd
:105318001b561b561b561b3623b80a7263b0f77d03
:10532800e71c5acb6b6d632d4a6a528a528a528a9d
:10533800528a528a528a528a528a528a528a528a85
:10534800528a528a528a528a4a8a4a8a528a4a4acd
:105358004a6aad55ffffffffef5dce59ffffffff24
:10536800f7be94b239e84a6a4a6a4a6a4a6a4a6a95
:105378004a6a4a6a4a6a4a6a4a6a4a6a4a6a4a6a85
:105388004a4a4a4a4a494a4942494a4a4a6a31a71c
:105398007befffffffffffffffffbdf74a496b6e83
:1053a8004a6a4a6a4a6a4a6a4a6a4a8a4a8a4a8af5
:1053b800528a528a4a8a4a8a4a8a4a6a4a6a4a6a95
:1053c8004a6a4a4a42298431ffffffffffff9cf3e4
:1053d800294629453186318731a739c742084a6aa3
:1053e8004a6a4a6a4a6a4a6a4a6a4a6a4a6a4a6a15
:1053f8004a6a4a6a4a6a4a6a4a6a4a6a4a6a4a6a05
:105408004a6a4a4a528a528b39c7c638ffffffff99
:10541800fffff79e630c632c5aec4a8a4a6a4a6a71
:105428004a8a528a528a528a528a528a528a4a8aa4
:10543800528a528a528a528a528a528a422973afaf
:10544800ef7dfffffffff79e6b4d2945318631a7a2
:1054580039c739c739e842294a6a4a6a4a6a4a6ae8
:105468004a6a4a6a4a6a4a6a4a6a4a6a4a6a4a6a94
:105478004a6a4a6a4a6a4a6a4a6a4a4a4a4952ab7c
:1054880029668410f79effffffffffffc6394b9187
:10549800547833f81b36237623562356235623563f
:1054a800235623562356235623562356235623562c
:1054b80023562356235623561b561b56235613167c
:1054c8002355be7cffffffffc67b33961316237759
:1054d8002356235623762376237623561b561b56ac
:1054e8001b561b561b561b561b561b561b361b366c
:1054f8001b361b361b361b3623b8027163b0f77d8b
:10550800e71c5aaa6b4d632d4a6a528a4a8a528a04
:105518004a8a4a8a4a8a4a8a4a8a4a8a4a8a4a8ae3
:105528004a8a4a8a4a8a4a8a4a8a4a8a4a4a42099c
:105538008410f7befffff79e94d38c71ffffffff27
:10554800f7be949239c84a6a4a6a4a6a4a6a4a6af3
:105558004a6a4a6a4a6a4a6a4a6a4a6a4a4a4a49e4
:105568004a494a494a49424942294a494a6a318785
:105578007bcfffffffffffffffffc6184a496b6d98
:105588004a6a4a4a4a6a4a6a4a6a4a6a4a6a4a6a93
:105598004a8a4a8a4a6a4a6a4a6a4a6a4a6a4a6a23
:1055a8004a6a424942098c72ffffffffffff9cd302
:1055b8004a494a6a4a6a420839c739e842294a4a7e
:1055c8004a6a4a6a4a4a4a6a4a6a4a4a4a4a4a6a93
:1055d8004a6a4a6a4a6a4a6a4a4a4a6a4a6a4a4a63
:1055e8004a494a494a6a528a39c7c638ffffffff03
:1055f800fffff79e630c630c5aec4a6a4a6a4a6ad0
:105608004a6a4a6a4a8a4a8a4a6a4a6a4a6a4a6ab2
:105618004a6a4a6a4a6a4a8a528a4a6a4208ad55b6
:10562800ffdfffffffffad75318639e852ab52aba4
:105638004a6a39e839e842294a6a4a6a4a6a4a6a31
:105648004a6a4a6a4a6a4a6a4a6a4a6a4a6a4a6ab2
:105658004a6a4a6a4a4a4a4a4a4a4a49424952ab03
:1056680029668410f79effffffffffffc6594b71a5
:105678004c5833f81b3623562356235623562356a5
:10568800235623562356235623562356235623564a
:105698002356235623561b361316131613360af5ac
:1056a8001b15be7cffffffffbe7b235502d61b36b2
:1056b800133613361b362376237623561b561b5672
:1056c8001b561b561b561b361b361b361b361b36ea
:1056d8001b361b361b361b36239802515b90f77d11
:1056e800e71c52aa632c630c4a6a4a6a4a6a4a6ae5
:1056f8004a6a4a6a4a6a4a6a4a6a4a6a4a6a4a6a02
:105708004a6a4a6a4a6a4a6a4a6a4a6a42095b0ca7
:10571800defbffffffffc63842089492ffffffff42
:10572800f7be949239c74a4a4a494a494a4a4a4ab4
:105738004a4a4a4a4a4a4a4a4a494a494a494a49c5
:105748004a494a4942494229422942494a4a3186f4
:105758007befffffffffffffffffc6184a29632dfe
:105768004a6a4a4a4a6a4a6a4a6a4a6a4a6a4a6ab1
:105778004a6a4a6a4a6a4a6a4a6a4a6a4a6a4a6a81
:105788004a6a422942099cf3ffffffffffffe73cfb
:10579800defbe71cdefbc63994b35acb42084a4904
:1057a8004a494a4a4a494a494a494a494a494a4a57
:1057b8004a4a4a4a4a4a4a4a4a4a4a494a494a4944
:1057c8004a494a494a6a528a39c7c638ffffffff21
:1057d800fffff79e630c5aeb5acb4a6a4a6a4a6a39
:1057e8004a6a4a6a4a6a4a6a4a6a4a6a4a6a4a6a11
:1057f8004a6a4a6a4a6a4a6a4a6a4a494a6ace59af
:10580800ffffffffffff9cd39492ce79e71ce71cb4
:10581800d69aa5145aec420842494a4a4a4a4a4a80
:105828004a4a4a4a4a4a4a4a4a4a4a4a4a4a4a6ab0
:105838004a4a4a4a4a494a494a4942494229528bac
:1058480029668410f79effffffffffffc6594b71c3
:105858004c3733d81b36235623561b361b361b367c
:105868001b361b56235623561b561b561b561b56b8
:105878001b561b561b5633d74417441744173bd6a1
:105888004416c6dcffffffffcedc54573bd7443835
:1058980044174c583bf723561b5623561b561b568a
:1058a8001b561b361b361b361b361b361b361b3648
:1058b8001b361b361b361b352398025163b0f77d08
:1058c800e71c528a5aec5b0c4a6a4a6a4a6a4a6a74
:1058d8004a6a4a6a4a6a4a6a4a6a4a6a4a6a4a6a20
:1058e8004a6a4a6a4a6a4a6a4a6a42294a49b5b6c3
:1058f800ffffffffef5d630c31669cf3ffffffffc7
:10590800f7be8c7231a74a494a494a494a494a4925
:105918004a494a494a494a494a494a4942494249f7
:105928004a494a4942294229422942294a49318653
:105938007befffffffffffffffffc61842085acbb0
:105948004a4a4a494a4a4a4a4a4a4a4a4a6a4a6a70
:105958004a6a4a6a4a6a4a4a4a4a4a4a4a4a4a4940
:105968004a4942294209a555fffffffffffffffff4
:10597800ffffffffffffffffffdfd6ba6b4d4208b7
:1059880042494a494249424942494a494a494a4997
:105998004a494a494a494a494a494a494a4942496f
:1059a800424942494a6a526a39c7c638ffffffff6f
:1059b800fffff79e630c5acb52cb4a6a4a6a4a6a7f
:1059c8004a6a4a6a4a6a4a6a4a6a4a6a4a4a4a6a4f
:1059d8004a6a4a6a4a6a4a6a4a4a42095acbdefc11
:1059e800ffffffffffdfef7dffdfffffffffffff91
:1059f800ffffffdfdedb6b4e3a0842294a4a4a497d
:105a08004a494a494a494a494a494a494a494a49f6
:105a18004a494a4942494249422942294229528b24
:105a280029668410f79effffffffffffc6594b71e1
:105a380044372bd81b1623561b361b361b361b36f2
:105a48001b361b361b361b361b361b361b561b36a6
:105a58001b3613162376be7cefbfef9eef9eef7ebc
:105a6800ef9ef7dfffffffffffdfef9fef9eef9e49
:105a7800ef9ef7bfa61b2376131523561b361b363e
:105a88001b361b361b361b361b351b351b151b15ca
:105a98001b151b361b361b151b77025163b0f77d90
:105aa800e71c528a52cb5aec4a4a4a6a4a6a4a6afc
:105ab8004a6a4a6a4a4a4a4a4a6a4a6a4a6a4a6a7e
:105ac8004a4a4a4a4a494a4a42293a088431ffdf3f
:105ad800fffff79e9492294539c794b3ffffffff54
:105ae800f79e8c51296642294249424942494a490e
:105af8004a494a494a49424942494249422942296e
:105b08004249422942294229420942294229316609
:105b18007befffffffffffffffffc61839e7528b40
:105b28004a4942494a494a494a494a494a494a49dd
:105b38004a4a4a4a4a494a4a4a494a494a494a49c2
:105b48004a4942084209ad55ffffffffffdff7be94
:105b5800f7beffdfffffffffffffffffd6ba52ab25
:105b680042094249422942294229422942494a498d
:105b78004a494249424942494229424942494229fd
:105b8800422942294a4a4a6a39c7ce59ffffffffcc
:105b9800fffff79e630c528a52ab4a6a4a6a4a4a26
:105ba8004a4a4a4a4a6a4a6a4a6a4a4a4a4a4a4aed
:105bb8004a4a4a4a4a4a4a494a4942085b0ce73c27
:105bc800ffffffffffffffffffffffdfffdfffff1d
:105bd800ffffffffffffd69a52ab42094a494a49e5
:105be80042494249424942494a49424942494a4945
:105bf8004a49424942294229422942294229528a8c
:105c080029668410f79effffffffffffc659435127
:105c18003bf72bb81b151b361b361b361b361b36a2
:105c28001b361b361b361b361b361b361b361b36e4
:105c38001b3613152356d71dffffffffffffffff7e
:105c4800ffffffffffffffffffffffffffffffff5c
:105c5800ffffffffae1b233512f51b361b361b3625
:105c68001b351b361b351b151b151b151b151b154b
:105c78001b151b151b151b151b77025163b0f77df0
:105c8800e73c526a4a6a52cb4a4a4a4a4a494a4a0d
:105c98004a494a494a494a494a4a4a4a4a4a4a4961
:105ca8004a494a494a4942294208632de71cffffed
:105cb800ffffb59639e831a639c794b3ffffffff58
:105cc800f7be8c723186422942294229422942492b
:105cd8004249424942494229422942294229422904
:105ce8004229422942294229420842294229296651
:105cf8007befffffffffffffffffbdf739c74a6ad2
:105d08004a494229424942494249424942494a4943
:105d18004a494a494a494a494a49424942494249fb
:105d2800422942294208632da4f49cf37bef632d9a
:105d3800630c7bf0d6baffffffffffffffff8c72fb
:105d480039e842094229422942294229422942295d
:105d580042294229422942294229422942294229e3
:105d6800422942294a494a4939c7ce59ffffffff0c
:105d7800fffff79e630c4a49528a4a4a4a494a49f0
:105d88004a494a494a494a4a4a4a4a494a494a4971
:105d98004a494a494a494249424939e85aece73ca2
:105da800ffffffffffffffdfa5145aec5aebb576a4
:105db800ffdfffffffffffff94924a4a3a084a4974
:105dc8004229424942294229424942294229422933
:105dd80042494229422942294229422942284a8adb
:105de80029458410f79effffffffffffce5943515f
:105df8002bb72b981b151b361b351b351b351b3535
:105e08001b361b351b361b361b361b361b361b3603
:105e18001b3613152335be7cf7dff7dff7dff7df17
:105e2800f7dffffffffffffffffff7dff7dff7df1a
:105e3800f7dff7df95991b1412f51b361b351b3559
